{
  "_format": "hh-sol-artifact-1",
  "contractName": "nftProject",
  "sourceName": "contracts/nft.sol",
  "abi": [
    {
      "inputs": [
        {
          "internalType": "string",
          "name": "_collectionName",
          "type": "string"
        },
        {
          "internalType": "uint256",
          "name": "_maxSupply",
          "type": "uint256"
        },
        {
          "internalType": "uint256",
          "name": "_mintCostInGwei",
          "type": "uint256"
        }
      ],
      "stateMutability": "nonpayable",
      "type": "constructor"
    },
    {
      "inputs": [
        {
          "internalType": "address",
          "name": "sender",
          "type": "address"
        },
        {
          "internalType": "uint256",
          "name": "tokenId",
          "type": "uint256"
        },
        {
          "internalType": "address",
          "name": "owner",
          "type": "address"
        }
      ],
      "name": "ERC721IncorrectOwner",
      "type": "error"
    },
    {
      "inputs": [
        {
          "internalType": "address",
          "name": "operator",
          "type": "address"
        },
        {
          "internalType": "uint256",
          "name": "tokenId",
          "type": "uint256"
        }
      ],
      "name": "ERC721InsufficientApproval",
      "type": "error"
    },
    {
      "inputs": [
        {
          "internalType": "address",
          "name": "approver",
          "type": "address"
        }
      ],
      "name": "ERC721InvalidApprover",
      "type": "error"
    },
    {
      "inputs": [
        {
          "internalType": "address",
          "name": "operator",
          "type": "address"
        }
      ],
      "name": "ERC721InvalidOperator",
      "type": "error"
    },
    {
      "inputs": [
        {
          "internalType": "address",
          "name": "owner",
          "type": "address"
        }
      ],
      "name": "ERC721InvalidOwner",
      "type": "error"
    },
    {
      "inputs": [
        {
          "internalType": "address",
          "name": "receiver",
          "type": "address"
        }
      ],
      "name": "ERC721InvalidReceiver",
      "type": "error"
    },
    {
      "inputs": [
        {
          "internalType": "address",
          "name": "sender",
          "type": "address"
        }
      ],
      "name": "ERC721InvalidSender",
      "type": "error"
    },
    {
      "inputs": [
        {
          "internalType": "uint256",
          "name": "tokenId",
          "type": "uint256"
        }
      ],
      "name": "ERC721NonexistentToken",
      "type": "error"
    },
    {
      "inputs": [
        {
          "internalType": "address",
          "name": "have",
          "type": "address"
        },
        {
          "internalType": "address",
          "name": "want",
          "type": "address"
        }
      ],
      "name": "OnlyCoordinatorCanFulfill",
      "type": "error"
    },
    {
      "anonymous": false,
      "inputs": [
        {
          "indexed": true,
          "internalType": "address",
          "name": "owner",
          "type": "address"
        },
        {
          "indexed": true,
          "internalType": "address",
          "name": "approved",
          "type": "address"
        },
        {
          "indexed": true,
          "internalType": "uint256",
          "name": "tokenId",
          "type": "uint256"
        }
      ],
      "name": "Approval",
      "type": "event"
    },
    {
      "anonymous": false,
      "inputs": [
        {
          "indexed": true,
          "internalType": "address",
          "name": "owner",
          "type": "address"
        },
        {
          "indexed": true,
          "internalType": "address",
          "name": "operator",
          "type": "address"
        },
        {
          "indexed": false,
          "internalType": "bool",
          "name": "approved",
          "type": "bool"
        }
      ],
      "name": "ApprovalForAll",
      "type": "event"
    },
    {
      "anonymous": false,
      "inputs": [
        {
          "indexed": true,
          "internalType": "uint256",
          "name": "nftId",
          "type": "uint256"
        },
        {
          "indexed": false,
          "internalType": "string",
          "name": "magazineName",
          "type": "string"
        },
        {
          "indexed": false,
          "internalType": "string",
          "name": "authorName",
          "type": "string"
        },
        {
          "indexed": false,
          "internalType": "string",
          "name": "description",
          "type": "string"
        },
        {
          "indexed": true,
          "internalType": "address",
          "name": "owner",
          "type": "address"
        }
      ],
      "name": "NFTCreated",
      "type": "event"
    },
    {
      "anonymous": false,
      "inputs": [
        {
          "indexed": true,
          "internalType": "uint256",
          "name": "nftId",
          "type": "uint256"
        },
        {
          "indexed": true,
          "internalType": "address",
          "name": "from",
          "type": "address"
        },
        {
          "indexed": true,
          "internalType": "address",
          "name": "to",
          "type": "address"
        }
      ],
      "name": "NFTTransferred",
      "type": "event"
    },
    {
      "anonymous": false,
      "inputs": [
        {
          "indexed": false,
          "internalType": "uint256",
          "name": "requestId",
          "type": "uint256"
        },
        {
          "indexed": true,
          "internalType": "address",
          "name": "requester",
          "type": "address"
        }
      ],
      "name": "RandomnessRequested",
      "type": "event"
    },
    {
      "anonymous": false,
      "inputs": [
        {
          "indexed": true,
          "internalType": "address",
          "name": "from",
          "type": "address"
        },
        {
          "indexed": true,
          "internalType": "address",
          "name": "to",
          "type": "address"
        },
        {
          "indexed": true,
          "internalType": "uint256",
          "name": "tokenId",
          "type": "uint256"
        }
      ],
      "name": "Transfer",
      "type": "event"
    },
    {
      "inputs": [
        {
          "internalType": "address",
          "name": "to",
          "type": "address"
        },
        {
          "internalType": "uint256",
          "name": "tokenId",
          "type": "uint256"
        }
      ],
      "name": "approve",
      "outputs": [],
      "stateMutability": "nonpayable",
      "type": "function"
    },
    {
      "inputs": [
        {
          "internalType": "address",
          "name": "owner",
          "type": "address"
        }
      ],
      "name": "balanceOf",
      "outputs": [
        {
          "internalType": "uint256",
          "name": "",
          "type": "uint256"
        }
      ],
      "stateMutability": "view",
      "type": "function"
    },
    {
      "inputs": [],
      "name": "collectionName",
      "outputs": [
        {
          "internalType": "string",
          "name": "",
          "type": "string"
        }
      ],
      "stateMutability": "view",
      "type": "function"
    },
    {
      "inputs": [
        {
          "internalType": "string",
          "name": "magazineName",
          "type": "string"
        },
        {
          "internalType": "string",
          "name": "authorName",
          "type": "string"
        },
        {
          "internalType": "string",
          "name": "description",
          "type": "string"
        }
      ],
      "name": "createNFT",
      "outputs": [],
      "stateMutability": "payable",
      "type": "function"
    },
    {
      "inputs": [
        {
          "internalType": "address",
          "name": "to",
          "type": "address"
        },
        {
          "internalType": "uint256",
          "name": "nftId",
          "type": "uint256"
        }
      ],
      "name": "exchangeNFT",
      "outputs": [],
      "stateMutability": "nonpayable",
      "type": "function"
    },
    {
      "inputs": [
        {
          "internalType": "uint256",
          "name": "tokenId",
          "type": "uint256"
        }
      ],
      "name": "getApproved",
      "outputs": [
        {
          "internalType": "address",
          "name": "",
          "type": "address"
        }
      ],
      "stateMutability": "view",
      "type": "function"
    },
    {
      "inputs": [
        {
          "internalType": "address",
          "name": "owner",
          "type": "address"
        },
        {
          "internalType": "address",
          "name": "operator",
          "type": "address"
        }
      ],
      "name": "isApprovedForAll",
      "outputs": [
        {
          "internalType": "bool",
          "name": "",
          "type": "bool"
        }
      ],
      "stateMutability": "view",
      "type": "function"
    },
    {
      "inputs": [],
      "name": "maxSupply",
      "outputs": [
        {
          "internalType": "uint256",
          "name": "",
          "type": "uint256"
        }
      ],
      "stateMutability": "view",
      "type": "function"
    },
    {
      "inputs": [],
      "name": "mintCost",
      "outputs": [
        {
          "internalType": "uint256",
          "name": "",
          "type": "uint256"
        }
      ],
      "stateMutability": "view",
      "type": "function"
    },
    {
      "inputs": [],
      "name": "name",
      "outputs": [
        {
          "internalType": "string",
          "name": "",
          "type": "string"
        }
      ],
      "stateMutability": "view",
      "type": "function"
    },
    {
      "inputs": [],
      "name": "nftCount",
      "outputs": [
        {
          "internalType": "uint256",
          "name": "",
          "type": "uint256"
        }
      ],
      "stateMutability": "view",
      "type": "function"
    },
    {
      "inputs": [],
      "name": "owner",
      "outputs": [
        {
          "internalType": "address",
          "name": "",
          "type": "address"
        }
      ],
      "stateMutability": "view",
      "type": "function"
    },
    {
      "inputs": [
        {
          "internalType": "uint256",
          "name": "tokenId",
          "type": "uint256"
        }
      ],
      "name": "ownerOf",
      "outputs": [
        {
          "internalType": "address",
          "name": "",
          "type": "address"
        }
      ],
      "stateMutability": "view",
      "type": "function"
    },
    {
      "inputs": [
        {
          "internalType": "uint256",
          "name": "requestId",
          "type": "uint256"
        },
        {
          "internalType": "uint256[]",
          "name": "randomWords",
          "type": "uint256[]"
        }
      ],
      "name": "rawFulfillRandomWords",
      "outputs": [],
      "stateMutability": "nonpayable",
      "type": "function"
    },
    {
      "inputs": [
        {
          "internalType": "address",
          "name": "from",
          "type": "address"
        },
        {
          "internalType": "address",
          "name": "to",
          "type": "address"
        },
        {
          "internalType": "uint256",
          "name": "tokenId",
          "type": "uint256"
        }
      ],
      "name": "safeTransferFrom",
      "outputs": [],
      "stateMutability": "nonpayable",
      "type": "function"
    },
    {
      "inputs": [
        {
          "internalType": "address",
          "name": "from",
          "type": "address"
        },
        {
          "internalType": "address",
          "name": "to",
          "type": "address"
        },
        {
          "internalType": "uint256",
          "name": "tokenId",
          "type": "uint256"
        },
        {
          "internalType": "bytes",
          "name": "data",
          "type": "bytes"
        }
      ],
      "name": "safeTransferFrom",
      "outputs": [],
      "stateMutability": "nonpayable",
      "type": "function"
    },
    {
      "inputs": [
        {
          "internalType": "address",
          "name": "operator",
          "type": "address"
        },
        {
          "internalType": "bool",
          "name": "approved",
          "type": "bool"
        }
      ],
      "name": "setApprovalForAll",
      "outputs": [],
      "stateMutability": "nonpayable",
      "type": "function"
    },
    {
      "inputs": [
        {
          "internalType": "bytes4",
          "name": "interfaceId",
          "type": "bytes4"
        }
      ],
      "name": "supportsInterface",
      "outputs": [
        {
          "internalType": "bool",
          "name": "",
          "type": "bool"
        }
      ],
      "stateMutability": "view",
      "type": "function"
    },
    {
      "inputs": [],
      "name": "symbol",
      "outputs": [
        {
          "internalType": "string",
          "name": "",
          "type": "string"
        }
      ],
      "stateMutability": "view",
      "type": "function"
    },
    {
      "inputs": [
        {
          "internalType": "uint256",
          "name": "tokenId",
          "type": "uint256"
        }
      ],
      "name": "tokenURI",
      "outputs": [
        {
          "internalType": "string",
          "name": "",
          "type": "string"
        }
      ],
      "stateMutability": "view",
      "type": "function"
    },
    {
      "inputs": [
        {
          "internalType": "address",
          "name": "from",
          "type": "address"
        },
        {
          "internalType": "address",
          "name": "to",
          "type": "address"
        },
        {
          "internalType": "uint256",
          "name": "tokenId",
          "type": "uint256"
        }
      ],
      "name": "transferFrom",
      "outputs": [],
      "stateMutability": "nonpayable",
      "type": "function"
    },
    {
      "inputs": [
        {
          "internalType": "uint256",
          "name": "nftId",
          "type": "uint256"
        }
      ],
      "name": "viewNFT",
      "outputs": [
        {
          "internalType": "string",
          "name": "magazineName",
          "type": "string"
        },
        {
          "internalType": "string",
          "name": "authorName",
          "type": "string"
        },
        {
          "internalType": "string",
          "name": "description",
          "type": "string"
        },
        {
          "internalType": "string",
          "name": "collection",
          "type": "string"
        },
        {
          "internalType": "address",
          "name": "ownerAddress",
          "type": "address"
        }
      ],
      "stateMutability": "view",
      "type": "function"
    },
    {
      "inputs": [],
      "name": "withdraw",
      "outputs": [],
      "stateMutability": "nonpayable",
      "type": "function"
    }
  ],
  "bytecode": "0x60a0604052739ddfaca8183c41ad55329bdeed9f6a8d53168b1b600e60006101000a81548173ffffffffffffffffffffffffffffffffffffffff021916908373ffffffffffffffffffffffffffffffffffffffff1602179055506209ea49600e60146101000a81548167ffffffffffffffff021916908367ffffffffffffffff1602179055507f787d74caea10b2b357790d5b5247c2f63d1d91572a9846f780606e4d953677ae60001b600f55620186a0601060006101000a81548163ffffffff021916908363ffffffff1602179055506002601060046101000a81548161ffff021916908361ffff1602179055506001601060066101000a81548163ffffffff021916908363ffffffff1602179055503480156200011d57600080fd5b506040516200444138038062004441833981810160405281019062000143919062000468565b739ddfaca8183c41ad55329bdeed9f6a8d53168b1b6040518060400160405280600781526020017f4c7563614e4654000000000000000000000000000000000000000000000000008152506040518060400160405280600481526020017f4c4e4654000000000000000000000000000000000000000000000000000000008152508160009081620001d5919062000724565b508060019081620001e7919062000724565b5050508073ffffffffffffffffffffffffffffffffffffffff1660808173ffffffffffffffffffffffffffffffffffffffff16815250505033600a60006101000a81548173ffffffffffffffffffffffffffffffffffffffff021916908373ffffffffffffffffffffffffffffffffffffffff160217905550826009908162000271919062000724565b5081600781905550633b9aca00816200028b91906200083a565b60088190555050505062000885565b6000604051905090565b600080fd5b600080fd5b600080fd5b600080fd5b6000601f19601f8301169050919050565b7f4e487b7100000000000000000000000000000000000000000000000000000000600052604160045260246000fd5b6200030382620002b8565b810181811067ffffffffffffffff82111715620003255762000324620002c9565b5b80604052505050565b60006200033a6200029a565b9050620003488282620002f8565b919050565b600067ffffffffffffffff8211156200036b576200036a620002c9565b5b6200037682620002b8565b9050602081019050919050565b60005b83811015620003a357808201518184015260208101905062000386565b60008484015250505050565b6000620003c6620003c0846200034d565b6200032e565b905082815260208101848484011115620003e557620003e4620002b3565b5b620003f284828562000383565b509392505050565b600082601f830112620004125762000411620002ae565b5b815162000424848260208601620003af565b91505092915050565b6000819050919050565b62000442816200042d565b81146200044e57600080fd5b50565b600081519050620004628162000437565b92915050565b600080600060608486031215620004845762000483620002a4565b5b600084015167ffffffffffffffff811115620004a557620004a4620002a9565b5b620004b386828701620003fa565b9350506020620004c68682870162000451565b9250506040620004d98682870162000451565b9150509250925092565b600081519050919050565b7f4e487b7100000000000000000000000000000000000000000000000000000000600052602260045260246000fd5b600060028204905060018216806200053657607f821691505b6020821081036200054c576200054b620004ee565b5b50919050565b60008190508160005260206000209050919050565b60006020601f8301049050919050565b600082821b905092915050565b600060088302620005b67fffffffffffffffffffffffffffffffffffffffffffffffffffffffffffffffff8262000577565b620005c2868362000577565b95508019841693508086168417925050509392505050565b6000819050919050565b600062000605620005ff620005f9846200042d565b620005da565b6200042d565b9050919050565b6000819050919050565b6200062183620005e4565b6200063962000630826200060c565b84845462000584565b825550505050565b600090565b6200065062000641565b6200065d81848462000616565b505050565b5b8181101562000685576200067960008262000646565b60018101905062000663565b5050565b601f821115620006d4576200069e8162000552565b620006a98462000567565b81016020851015620006b9578190505b620006d1620006c88562000567565b83018262000662565b50505b505050565b600082821c905092915050565b6000620006f960001984600802620006d9565b1980831691505092915050565b6000620007148383620006e6565b9150826002028217905092915050565b6200072f82620004e3565b67ffffffffffffffff8111156200074b576200074a620002c9565b5b6200075782546200051d565b6200076482828562000689565b600060209050601f8311600181146200079c576000841562000787578287015190505b62000793858262000706565b86555062000803565b601f198416620007ac8662000552565b60005b82811015620007d657848901518255600182019150602085019450602081019050620007af565b86831015620007f65784890151620007f2601f891682620006e6565b8355505b6001600288020188555050505b505050505050565b7f4e487b7100000000000000000000000000000000000000000000000000000000600052601160045260246000fd5b600062000847826200042d565b915062000854836200042d565b925082820262000864816200042d565b915082820484148315176200087e576200087d6200080b565b5b5092915050565b608051613b99620008a86000396000818161072101526107750152613b996000f3fe6080604052600436106101405760003560e01c806370a08231116100b6578063b88d4fde1161006f578063b88d4fde1461044f578063bdb4b84814610478578063c87b56dd146104a3578063d5abeb01146104e0578063e5326ab11461050b578063e985e9c51461053657610140565b806370a08231146103365780637b276f05146103735780638da5cb5b146103b457806395d89b41146103df5780639f8e9dbc1461040a578063a22cb4651461042657610140565b80631fe543e3116101085780631fe543e31461023e57806323b872dd1461026757806326e1cf33146102905780633ccfd60b146102b957806342842e0e146102d05780636352211e146102f957610140565b806301ffc9a71461014557806306fdde0314610182578063081812fc146101ad578063095ea7b3146101ea5780630af2c6ca14610213575b600080fd5b34801561015157600080fd5b5061016c60048036038101906101679190612877565b610573565b60405161017991906128bf565b60405180910390f35b34801561018e57600080fd5b50610197610655565b6040516101a4919061296a565b60405180910390f35b3480156101b957600080fd5b506101d460048036038101906101cf91906129c2565b6106e7565b6040516101e19190612a30565b60405180910390f35b3480156101f657600080fd5b50610211600480360381019061020c9190612a77565b610703565b005b34801561021f57600080fd5b50610228610719565b6040516102359190612ac6565b60405180910390f35b34801561024a57600080fd5b5061026560048036038101906102609190612c29565b61071f565b005b34801561027357600080fd5b5061028e60048036038101906102899190612c85565b6107df565b005b34801561029c57600080fd5b506102b760048036038101906102b29190612a77565b6108e1565b005b3480156102c557600080fd5b506102ce610a30565b005b3480156102dc57600080fd5b506102f760048036038101906102f29190612c85565b610b74565b005b34801561030557600080fd5b50610320600480360381019061031b91906129c2565b610b94565b60405161032d9190612a30565b60405180910390f35b34801561034257600080fd5b5061035d60048036038101906103589190612cd8565b610ba6565b60405161036a9190612ac6565b60405180910390f35b34801561037f57600080fd5b5061039a600480360381019061039591906129c2565b610c60565b6040516103ab959493929190612d05565b60405180910390f35b3480156103c057600080fd5b506103c9610f3c565b6040516103d69190612a30565b60405180910390f35b3480156103eb57600080fd5b506103f4610f62565b604051610401919061296a565b60405180910390f35b610424600480360381019061041f9190612e29565b610ff4565b005b34801561043257600080fd5b5061044d60048036038101906104489190612efc565b611334565b005b34801561045b57600080fd5b5061047660048036038101906104719190612fdd565b61134a565b005b34801561048457600080fd5b5061048d611367565b60405161049a9190612ac6565b60405180910390f35b3480156104af57600080fd5b506104ca60048036038101906104c591906129c2565b61136d565b6040516104d7919061296a565b60405180910390f35b3480156104ec57600080fd5b506104f56113d6565b6040516105029190612ac6565b60405180910390f35b34801561051757600080fd5b506105206113dc565b60405161052d919061296a565b60405180910390f35b34801561054257600080fd5b5061055d60048036038101906105589190613060565b61146a565b60405161056a91906128bf565b60405180910390f35b60007f80ac58cd000000000000000000000000000000000000000000000000000000007bffffffffffffffffffffffffffffffffffffffffffffffffffffffff1916827bffffffffffffffffffffffffffffffffffffffffffffffffffffffff1916148061063e57507f5b5e139f000000000000000000000000000000000000000000000000000000007bffffffffffffffffffffffffffffffffffffffffffffffffffffffff1916827bffffffffffffffffffffffffffffffffffffffffffffffffffffffff1916145b8061064e575061064d826114fe565b5b9050919050565b606060008054610664906130cf565b80601f0160208091040260200160405190810160405280929190818152602001828054610690906130cf565b80156106dd5780601f106106b2576101008083540402835291602001916106dd565b820191906000526020600020905b8154815290600101906020018083116106c057829003601f168201915b5050505050905090565b60006106f282611568565b506106fc826115f0565b9050919050565b610715828261071061162d565b611635565b5050565b60065481565b7f000000000000000000000000000000000000000000000000000000000000000073ffffffffffffffffffffffffffffffffffffffff163373ffffffffffffffffffffffffffffffffffffffff16146107d157337f00000000000000000000000000000000000000000000000000000000000000006040517f1cf993f40000000000000000000000000000000000000000000000000000000081526004016107c8929190613100565b60405180910390fd5b6107db8282611647565b5050565b600073ffffffffffffffffffffffffffffffffffffffff168273ffffffffffffffffffffffffffffffffffffffff16036108515760006040517f64a0ae920000000000000000000000000000000000000000000000000000000081526004016108489190612a30565b60405180910390fd5b6000610865838361086061162d565b611aa6565b90508373ffffffffffffffffffffffffffffffffffffffff168173ffffffffffffffffffffffffffffffffffffffff16146108db578382826040517f64283d7b0000000000000000000000000000000000000000000000000000000081526004016108d293929190613129565b60405180910390fd5b50505050565b6108ea81610b94565b73ffffffffffffffffffffffffffffffffffffffff163373ffffffffffffffffffffffffffffffffffffffff1614610957576040517f08c379a000000000000000000000000000000000000000000000000000000000815260040161094e906131d2565b60405180910390fd5b600073ffffffffffffffffffffffffffffffffffffffff168273ffffffffffffffffffffffffffffffffffffffff16036109c6576040517f08c379a00000000000000000000000000000000000000000000000000000000081526004016109bd9061323e565b60405180910390fd5b6109d1338383611cc0565b8173ffffffffffffffffffffffffffffffffffffffff163373ffffffffffffffffffffffffffffffffffffffff16827f67043fac5fd2bf9edbb46ee495aaed7f97f91d43507d373be2b592af19b8c0a860405160405180910390a45050565b600a60009054906101000a900473ffffffffffffffffffffffffffffffffffffffff1673ffffffffffffffffffffffffffffffffffffffff163373ffffffffffffffffffffffffffffffffffffffff1614610ac0576040517f08c379a0000000000000000000000000000000000000000000000000000000008152600401610ab7906132aa565b60405180910390fd5b600047905060008111610b08576040517f08c379a0000000000000000000000000000000000000000000000000000000008152600401610aff90613316565b60405180910390fd5b600a60009054906101000a900473ffffffffffffffffffffffffffffffffffffffff1673ffffffffffffffffffffffffffffffffffffffff166108fc829081150290604051600060405180830381858888f19350505050158015610b70573d6000803e3d6000fd5b5050565b610b8f8383836040518060200160405280600081525061134a565b505050565b6000610b9f82611568565b9050919050565b60008073ffffffffffffffffffffffffffffffffffffffff168273ffffffffffffffffffffffffffffffffffffffff1603610c195760006040517f89c62b64000000000000000000000000000000000000000000000000000000008152600401610c109190612a30565b60405180910390fd5b600360008373ffffffffffffffffffffffffffffffffffffffff1673ffffffffffffffffffffffffffffffffffffffff168152602001908152602001600020549050919050565b6060806060806000600c600087815260200190815260200160002060009054906101000a900460ff16610cc8576040517f08c379a0000000000000000000000000000000000000000000000000000000008152600401610cbf90613382565b60405180910390fd5b6000600b6000888152602001908152602001600020905080600001816001018260020183600301610cf88b610b94565b848054610d04906130cf565b80601f0160208091040260200160405190810160405280929190818152602001828054610d30906130cf565b8015610d7d5780601f10610d5257610100808354040283529160200191610d7d565b820191906000526020600020905b815481529060010190602001808311610d6057829003601f168201915b50505050509450838054610d90906130cf565b80601f0160208091040260200160405190810160405280929190818152602001828054610dbc906130cf565b8015610e095780601f10610dde57610100808354040283529160200191610e09565b820191906000526020600020905b815481529060010190602001808311610dec57829003601f168201915b50505050509350828054610e1c906130cf565b80601f0160208091040260200160405190810160405280929190818152602001828054610e48906130cf565b8015610e955780601f10610e6a57610100808354040283529160200191610e95565b820191906000526020600020905b815481529060010190602001808311610e7857829003601f168201915b50505050509250818054610ea8906130cf565b80601f0160208091040260200160405190810160405280929190818152602001828054610ed4906130cf565b8015610f215780601f10610ef657610100808354040283529160200191610f21565b820191906000526020600020905b815481529060010190602001808311610f0457829003601f168201915b50505050509150955095509550955095505091939590929450565b600a60009054906101000a900473ffffffffffffffffffffffffffffffffffffffff1681565b606060018054610f71906130cf565b80601f0160208091040260200160405190810160405280929190818152602001828054610f9d906130cf565b8015610fea5780601f10610fbf57610100808354040283529160200191610fea565b820191906000526020600020905b815481529060010190602001808311610fcd57829003601f168201915b5050505050905090565b6007546006541061103a576040517f08c379a0000000000000000000000000000000000000000000000000000000008152600401611031906133ee565b60405180910390fd5b60085434101561107f576040517f08c379a00000000000000000000000000000000000000000000000000000000081526004016110769061345a565b60405180910390fd5b6000600e60009054906101000a900473ffffffffffffffffffffffffffffffffffffffff1673ffffffffffffffffffffffffffffffffffffffff16635d3b1d30600f54600e60149054906101000a900467ffffffffffffffff16601060049054906101000a900461ffff16601060009054906101000a900463ffffffff16601060069054906101000a900463ffffffff166040518663ffffffff1660e01b81526004016111309594939291906134f2565b6020604051808303816000875af115801561114f573d6000803e3d6000fd5b505050506040513d601f19601f82011682018060405250810190611173919061355a565b905033600d600083815260200190815260200160002060006101000a81548173ffffffffffffffffffffffffffffffffffffffff021916908373ffffffffffffffffffffffffffffffffffffffff1602179055503373ffffffffffffffffffffffffffffffffffffffff167f28f521cf7abd0044cba5bb040c5217ff69a4e5865f5262905018698e68fe7d008260405161120d9190612ac6565b60405180910390a260405180608001604052808581526020018481526020018381526020016009805461123f906130cf565b80601f016020809104026020016040519081016040528092919081815260200182805461126b906130cf565b80156112b85780601f1061128d576101008083540402835291602001916112b8565b820191906000526020600020905b81548152906001019060200180831161129b57829003601f168201915b5050505050815250600b600083815260200190815260200160002060008201518160000190816112e89190613733565b5060208201518160010190816112fe9190613733565b5060408201518160020190816113149190613733565b50606082015181600301908161132a9190613733565b5090505050505050565b61134661133f61162d565b8383611e2d565b5050565b6113558484846107df565b61136184848484611f9c565b50505050565b60085481565b606061137882611568565b506000611383612153565b905060008151116113a357604051806020016040528060008152506113ce565b806113ad8461216a565b6040516020016113be929190613841565b6040516020818303038152906040525b915050919050565b60075481565b600980546113e9906130cf565b80601f0160208091040260200160405190810160405280929190818152602001828054611415906130cf565b80156114625780601f1061143757610100808354040283529160200191611462565b820191906000526020600020905b81548152906001019060200180831161144557829003601f168201915b505050505081565b6000600560008473ffffffffffffffffffffffffffffffffffffffff1673ffffffffffffffffffffffffffffffffffffffff16815260200190815260200160002060008373ffffffffffffffffffffffffffffffffffffffff1673ffffffffffffffffffffffffffffffffffffffff16815260200190815260200160002060009054906101000a900460ff16905092915050565b60007f01ffc9a7000000000000000000000000000000000000000000000000000000007bffffffffffffffffffffffffffffffffffffffffffffffffffffffff1916827bffffffffffffffffffffffffffffffffffffffffffffffffffffffff1916149050919050565b60008061157483612238565b9050600073ffffffffffffffffffffffffffffffffffffffff168173ffffffffffffffffffffffffffffffffffffffff16036115e757826040517f7e2732890000000000000000000000000000000000000000000000000000000081526004016115de9190612ac6565b60405180910390fd5b80915050919050565b60006004600083815260200190815260200160002060009054906101000a900473ffffffffffffffffffffffffffffffffffffffff169050919050565b600033905090565b6116428383836001612275565b505050565b600060016007548360008151811061166257611661613865565b5b602002602001015161167491906138c3565b61167e9190613923565b9050600c600082815260200190815260200160002060009054906101000a900460ff16156116e1576040517f08c379a00000000000000000000000000000000000000000000000000000000081526004016116d8906139a3565b60405180910390fd5b6000600d600085815260200190815260200160002060009054906101000a900473ffffffffffffffffffffffffffffffffffffffff169050611723818361243a565b6001600c600084815260200190815260200160002060006101000a81548160ff02191690831515021790555060066000815480929190611762906139c3565b91905055506000600b6000868152602001908152602001600020604051806080016040529081600082018054611797906130cf565b80601f01602080910402602001604051908101604052809291908181526020018280546117c3906130cf565b80156118105780601f106117e557610100808354040283529160200191611810565b820191906000526020600020905b8154815290600101906020018083116117f357829003601f168201915b50505050508152602001600182018054611829906130cf565b80601f0160208091040260200160405190810160405280929190818152602001828054611855906130cf565b80156118a25780601f10611877576101008083540402835291602001916118a2565b820191906000526020600020905b81548152906001019060200180831161188557829003601f168201915b505050505081526020016002820180546118bb906130cf565b80601f01602080910402602001604051908101604052809291908181526020018280546118e7906130cf565b80156119345780601f1061190957610100808354040283529160200191611934565b820191906000526020600020905b81548152906001019060200180831161191757829003601f168201915b5050505050815260200160038201805461194d906130cf565b80601f0160208091040260200160405190810160405280929190818152602001828054611979906130cf565b80156119c65780601f1061199b576101008083540402835291602001916119c6565b820191906000526020600020905b8154815290600101906020018083116119a957829003601f168201915b505050505081525050905080600b600085815260200190815260200160002060008201518160000190816119fa9190613733565b506020820151816001019081611a109190613733565b506040820151816002019081611a269190613733565b506060820151816003019081611a3c9190613733565b509050508173ffffffffffffffffffffffffffffffffffffffff16837f15103bf89a273396b04da5d980d4e6210e698bace58704f623b971bafaa53899836000015184602001518560400151604051611a9793929190613a0b565b60405180910390a35050505050565b600080611ab284612238565b9050600073ffffffffffffffffffffffffffffffffffffffff168373ffffffffffffffffffffffffffffffffffffffff1614611af457611af3818486612533565b5b600073ffffffffffffffffffffffffffffffffffffffff168173ffffffffffffffffffffffffffffffffffffffff1614611b8557611b36600085600080612275565b6001600360008373ffffffffffffffffffffffffffffffffffffffff1673ffffffffffffffffffffffffffffffffffffffff168152602001908152602001600020600082825403925050819055505b600073ffffffffffffffffffffffffffffffffffffffff168573ffffffffffffffffffffffffffffffffffffffff1614611c08576001600360008773ffffffffffffffffffffffffffffffffffffffff1673ffffffffffffffffffffffffffffffffffffffff168152602001908152602001600020600082825401925050819055505b846002600086815260200190815260200160002060006101000a81548173ffffffffffffffffffffffffffffffffffffffff021916908373ffffffffffffffffffffffffffffffffffffffff160217905550838573ffffffffffffffffffffffffffffffffffffffff168273ffffffffffffffffffffffffffffffffffffffff167fddf252ad1be2c89b69c2b068fc378daa952ba7f163c4a11628f55a4df523b3ef60405160405180910390a4809150509392505050565b600073ffffffffffffffffffffffffffffffffffffffff168273ffffffffffffffffffffffffffffffffffffffff1603611d325760006040517f64a0ae92000000000000000000000000000000000000000000000000000000008152600401611d299190612a30565b60405180910390fd5b6000611d4083836000611aa6565b9050600073ffffffffffffffffffffffffffffffffffffffff168173ffffffffffffffffffffffffffffffffffffffff1603611db357816040517f7e273289000000000000000000000000000000000000000000000000000000008152600401611daa9190612ac6565b60405180910390fd5b8373ffffffffffffffffffffffffffffffffffffffff168173ffffffffffffffffffffffffffffffffffffffff1614611e27578382826040517f64283d7b000000000000000000000000000000000000000000000000000000008152600401611e1e93929190613129565b60405180910390fd5b50505050565b600073ffffffffffffffffffffffffffffffffffffffff168273ffffffffffffffffffffffffffffffffffffffff1603611e9e57816040517f5b08ba18000000000000000000000000000000000000000000000000000000008152600401611e959190612a30565b60405180910390fd5b80600560008573ffffffffffffffffffffffffffffffffffffffff1673ffffffffffffffffffffffffffffffffffffffff16815260200190815260200160002060008473ffffffffffffffffffffffffffffffffffffffff1673ffffffffffffffffffffffffffffffffffffffff16815260200190815260200160002060006101000a81548160ff0219169083151502179055508173ffffffffffffffffffffffffffffffffffffffff168373ffffffffffffffffffffffffffffffffffffffff167f17307eab39ab6107e8899845ad3d59bd9653f200f220920489ca2b5937696c3183604051611f8f91906128bf565b60405180910390a3505050565b60008373ffffffffffffffffffffffffffffffffffffffff163b111561214d578273ffffffffffffffffffffffffffffffffffffffff1663150b7a02611fe061162d565b8685856040518563ffffffff1660e01b81526004016120029493929190613aac565b6020604051808303816000875af192505050801561203e57506040513d601f19601f8201168201806040525081019061203b9190613b0d565b60015b6120c2573d806000811461206e576040519150601f19603f3d011682016040523d82523d6000602084013e612073565b606091505b5060008151036120ba57836040517f64a0ae920000000000000000000000000000000000000000000000000000000081526004016120b19190612a30565b60405180910390fd5b805181602001fd5b63150b7a0260e01b7bffffffffffffffffffffffffffffffffffffffffffffffffffffffff1916817bffffffffffffffffffffffffffffffffffffffffffffffffffffffff19161461214b57836040517f64a0ae920000000000000000000000000000000000000000000000000000000081526004016121429190612a30565b60405180910390fd5b505b50505050565b606060405180602001604052806000815250905090565b606060006001612179846125f7565b01905060008167ffffffffffffffff81111561219857612197612ae6565b5b6040519080825280601f01601f1916602001820160405280156121ca5781602001600182028036833780820191505090505b509050600082602001820190505b60011561222d578080600190039150507f3031323334353637383961626364656600000000000000000000000000000000600a86061a8153600a858161222157612220613894565b5b049450600085036121d8575b819350505050919050565b60006002600083815260200190815260200160002060009054906101000a900473ffffffffffffffffffffffffffffffffffffffff169050919050565b80806122ae5750600073ffffffffffffffffffffffffffffffffffffffff168273ffffffffffffffffffffffffffffffffffffffff1614155b156123e25760006122be84611568565b9050600073ffffffffffffffffffffffffffffffffffffffff168373ffffffffffffffffffffffffffffffffffffffff161415801561232957508273ffffffffffffffffffffffffffffffffffffffff168173ffffffffffffffffffffffffffffffffffffffff1614155b801561233c575061233a818461146a565b155b1561237e57826040517fa9fbf51f0000000000000000000000000000000000000000000000000000000081526004016123759190612a30565b60405180910390fd5b81156123e057838573ffffffffffffffffffffffffffffffffffffffff168273ffffffffffffffffffffffffffffffffffffffff167f8c5be1e5ebec7d5bd14f71427d1e84f3dd0314c0f7b2291e5b200ac8c7c3b92560405160405180910390a45b505b836004600085815260200190815260200160002060006101000a81548173ffffffffffffffffffffffffffffffffffffffff021916908373ffffffffffffffffffffffffffffffffffffffff16021790555050505050565b600073ffffffffffffffffffffffffffffffffffffffff168273ffffffffffffffffffffffffffffffffffffffff16036124ac5760006040517f64a0ae920000000000000000000000000000000000000000000000000000000081526004016124a39190612a30565b60405180910390fd5b60006124ba83836000611aa6565b9050600073ffffffffffffffffffffffffffffffffffffffff168173ffffffffffffffffffffffffffffffffffffffff161461252e5760006040517f73c6ac6e0000000000000000000000000000000000000000000000000000000081526004016125259190612a30565b60405180910390fd5b505050565b61253e83838361274a565b6125f257600073ffffffffffffffffffffffffffffffffffffffff168373ffffffffffffffffffffffffffffffffffffffff16036125b357806040517f7e2732890000000000000000000000000000000000000000000000000000000081526004016125aa9190612ac6565b60405180910390fd5b81816040517f177e802f0000000000000000000000000000000000000000000000000000000081526004016125e9929190613b3a565b60405180910390fd5b505050565b600080600090507a184f03e93ff9f4daa797ed6e38ed64bf6a1f0100000000000000008310612655577a184f03e93ff9f4daa797ed6e38ed64bf6a1f010000000000000000838161264b5761264a613894565b5b0492506040810190505b6d04ee2d6d415b85acef81000000008310612692576d04ee2d6d415b85acef8100000000838161268857612687613894565b5b0492506020810190505b662386f26fc1000083106126c157662386f26fc1000083816126b7576126b6613894565b5b0492506010810190505b6305f5e10083106126ea576305f5e10083816126e0576126df613894565b5b0492506008810190505b612710831061270f57612710838161270557612704613894565b5b0492506004810190505b60648310612732576064838161272857612727613894565b5b0492506002810190505b600a8310612741576001810190505b80915050919050565b60008073ffffffffffffffffffffffffffffffffffffffff168373ffffffffffffffffffffffffffffffffffffffff161415801561280257508273ffffffffffffffffffffffffffffffffffffffff168473ffffffffffffffffffffffffffffffffffffffff1614806127c357506127c2848461146a565b5b8061280157508273ffffffffffffffffffffffffffffffffffffffff166127e9836115f0565b73ffffffffffffffffffffffffffffffffffffffff16145b5b90509392505050565b6000604051905090565b600080fd5b600080fd5b60007fffffffff0000000000000000000000000000000000000000000000000000000082169050919050565b6128548161281f565b811461285f57600080fd5b50565b6000813590506128718161284b565b92915050565b60006020828403121561288d5761288c612815565b5b600061289b84828501612862565b91505092915050565b60008115159050919050565b6128b9816128a4565b82525050565b60006020820190506128d460008301846128b0565b92915050565b600081519050919050565b600082825260208201905092915050565b60005b838110156129145780820151818401526020810190506128f9565b60008484015250505050565b6000601f19601f8301169050919050565b600061293c826128da565b61294681856128e5565b93506129568185602086016128f6565b61295f81612920565b840191505092915050565b600060208201905081810360008301526129848184612931565b905092915050565b6000819050919050565b61299f8161298c565b81146129aa57600080fd5b50565b6000813590506129bc81612996565b92915050565b6000602082840312156129d8576129d7612815565b5b60006129e6848285016129ad565b91505092915050565b600073ffffffffffffffffffffffffffffffffffffffff82169050919050565b6000612a1a826129ef565b9050919050565b612a2a81612a0f565b82525050565b6000602082019050612a456000830184612a21565b92915050565b612a5481612a0f565b8114612a5f57600080fd5b50565b600081359050612a7181612a4b565b92915050565b60008060408385031215612a8e57612a8d612815565b5b6000612a9c85828601612a62565b9250506020612aad858286016129ad565b9150509250929050565b612ac08161298c565b82525050565b6000602082019050612adb6000830184612ab7565b92915050565b600080fd5b7f4e487b7100000000000000000000000000000000000000000000000000000000600052604160045260246000fd5b612b1e82612920565b810181811067ffffffffffffffff82111715612b3d57612b3c612ae6565b5b80604052505050565b6000612b5061280b565b9050612b5c8282612b15565b919050565b600067ffffffffffffffff821115612b7c57612b7b612ae6565b5b602082029050602081019050919050565b600080fd5b6000612ba5612ba084612b61565b612b46565b90508083825260208201905060208402830185811115612bc857612bc7612b8d565b5b835b81811015612bf15780612bdd88826129ad565b845260208401935050602081019050612bca565b5050509392505050565b600082601f830112612c1057612c0f612ae1565b5b8135612c20848260208601612b92565b91505092915050565b60008060408385031215612c4057612c3f612815565b5b6000612c4e858286016129ad565b925050602083013567ffffffffffffffff811115612c6f57612c6e61281a565b5b612c7b85828601612bfb565b9150509250929050565b600080600060608486031215612c9e57612c9d612815565b5b6000612cac86828701612a62565b9350506020612cbd86828701612a62565b9250506040612cce868287016129ad565b9150509250925092565b600060208284031215612cee57612ced612815565b5b6000612cfc84828501612a62565b91505092915050565b600060a0820190508181036000830152612d1f8188612931565b90508181036020830152612d338187612931565b90508181036040830152612d478186612931565b90508181036060830152612d5b8185612931565b9050612d6a6080830184612a21565b9695505050505050565b600080fd5b600067ffffffffffffffff821115612d9457612d93612ae6565b5b612d9d82612920565b9050602081019050919050565b82818337600083830152505050565b6000612dcc612dc784612d79565b612b46565b905082815260208101848484011115612de857612de7612d74565b5b612df3848285612daa565b509392505050565b600082601f830112612e1057612e0f612ae1565b5b8135612e20848260208601612db9565b91505092915050565b600080600060608486031215612e4257612e41612815565b5b600084013567ffffffffffffffff811115612e6057612e5f61281a565b5b612e6c86828701612dfb565b935050602084013567ffffffffffffffff811115612e8d57612e8c61281a565b5b612e9986828701612dfb565b925050604084013567ffffffffffffffff811115612eba57612eb961281a565b5b612ec686828701612dfb565b9150509250925092565b612ed9816128a4565b8114612ee457600080fd5b50565b600081359050612ef681612ed0565b92915050565b60008060408385031215612f1357612f12612815565b5b6000612f2185828601612a62565b9250506020612f3285828601612ee7565b9150509250929050565b600067ffffffffffffffff821115612f5757612f56612ae6565b5b612f6082612920565b9050602081019050919050565b6000612f80612f7b84612f3c565b612b46565b905082815260208101848484011115612f9c57612f9b612d74565b5b612fa7848285612daa565b509392505050565b600082601f830112612fc457612fc3612ae1565b5b8135612fd4848260208601612f6d565b91505092915050565b60008060008060808587031215612ff757612ff6612815565b5b600061300587828801612a62565b945050602061301687828801612a62565b9350506040613027878288016129ad565b925050606085013567ffffffffffffffff8111156130485761304761281a565b5b61305487828801612faf565b91505092959194509250565b6000806040838503121561307757613076612815565b5b600061308585828601612a62565b925050602061309685828601612a62565b9150509250929050565b7f4e487b7100000000000000000000000000000000000000000000000000000000600052602260045260246000fd5b600060028204905060018216806130e757607f821691505b6020821081036130fa576130f96130a0565b5b50919050565b60006040820190506131156000830185612a21565b6131226020830184612a21565b9392505050565b600060608201905061313e6000830186612a21565b61314b6020830185612ab7565b6131586040830184612a21565b949350505050565b7f596f7520617265206e6f7420746865206f776e6572206f662074686973204e4660008201527f5400000000000000000000000000000000000000000000000000000000000000602082015250565b60006131bc6021836128e5565b91506131c782613160565b604082019050919050565b600060208201905081810360008301526131eb816131af565b9050919050565b7f496e76616c696420616464726573730000000000000000000000000000000000600082015250565b6000613228600f836128e5565b9150613233826131f2565b602082019050919050565b600060208201905081810360008301526132578161321b565b9050919050565b7f4e6f742074686520636f6e7472616374206f776e657200000000000000000000600082015250565b60006132946016836128e5565b915061329f8261325e565b602082019050919050565b600060208201905081810360008301526132c381613287565b9050919050565b7f4e6f2066756e647320746f207769746864726177000000000000000000000000600082015250565b60006133006014836128e5565b915061330b826132ca565b602082019050919050565b6000602082019050818103600083015261332f816132f3565b9050919050565b7f4e465420646f6573206e6f742065786973740000000000000000000000000000600082015250565b600061336c6012836128e5565b915061337782613336565b602082019050919050565b6000602082019050818103600083015261339b8161335f565b9050919050565b7f4d617820737570706c7920726561636865640000000000000000000000000000600082015250565b60006133d86012836128e5565b91506133e3826133a2565b602082019050919050565b60006020820190508181036000830152613407816133cb565b9050919050565b7f4e6f7420656e6f75676820657468657220746f20637265617465204e46540000600082015250565b6000613444601e836128e5565b915061344f8261340e565b602082019050919050565b6000602082019050818103600083015261347381613437565b9050919050565b6000819050919050565b61348d8161347a565b82525050565b600067ffffffffffffffff82169050919050565b6134b081613493565b82525050565b600061ffff82169050919050565b6134cd816134b6565b82525050565b600063ffffffff82169050919050565b6134ec816134d3565b82525050565b600060a0820190506135076000830188613484565b61351460208301876134a7565b61352160408301866134c4565b61352e60608301856134e3565b61353b60808301846134e3565b9695505050505050565b60008151905061355481612996565b92915050565b6000602082840312156135705761356f612815565b5b600061357e84828501613545565b91505092915050565b60008190508160005260206000209050919050565b60006020601f8301049050919050565b600082821b905092915050565b6000600883026135e97fffffffffffffffffffffffffffffffffffffffffffffffffffffffffffffffff826135ac565b6135f386836135ac565b95508019841693508086168417925050509392505050565b6000819050919050565b600061363061362b6136268461298c565b61360b565b61298c565b9050919050565b6000819050919050565b61364a83613615565b61365e61365682613637565b8484546135b9565b825550505050565b600090565b613673613666565b61367e818484613641565b505050565b5b818110156136a25761369760008261366b565b600181019050613684565b5050565b601f8211156136e7576136b881613587565b6136c18461359c565b810160208510156136d0578190505b6136e46136dc8561359c565b830182613683565b50505b505050565b600082821c905092915050565b600061370a600019846008026136ec565b1980831691505092915050565b600061372383836136f9565b9150826002028217905092915050565b61373c826128da565b67ffffffffffffffff81111561375557613754612ae6565b5b61375f82546130cf565b61376a8282856136a6565b600060209050601f83116001811461379d576000841561378b578287015190505b6137958582613717565b8655506137fd565b601f1984166137ab86613587565b60005b828110156137d3578489015182556001820191506020850194506020810190506137ae565b868310156137f057848901516137ec601f8916826136f9565b8355505b6001600288020188555050505b505050505050565b600081905092915050565b600061381b826128da565b6138258185613805565b93506138358185602086016128f6565b80840191505092915050565b600061384d8285613810565b91506138598284613810565b91508190509392505050565b7f4e487b7100000000000000000000000000000000000000000000000000000000600052603260045260246000fd5b7f4e487b7100000000000000000000000000000000000000000000000000000000600052601260045260246000fd5b60006138ce8261298c565b91506138d98361298c565b9250826138e9576138e8613894565b5b828206905092915050565b7f4e487b7100000000000000000000000000000000000000000000000000000000600052601160045260246000fd5b600061392e8261298c565b91506139398361298c565b9250828201905080821115613951576139506138f4565b5b92915050565b7f4e465420494420616c7265616479206578697374730000000000000000000000600082015250565b600061398d6015836128e5565b915061399882613957565b602082019050919050565b600060208201905081810360008301526139bc81613980565b9050919050565b60006139ce8261298c565b91507fffffffffffffffffffffffffffffffffffffffffffffffffffffffffffffffff8203613a00576139ff6138f4565b5b600182019050919050565b60006060820190508181036000830152613a258186612931565b90508181036020830152613a398185612931565b90508181036040830152613a4d8184612931565b9050949350505050565b600081519050919050565b600082825260208201905092915050565b6000613a7e82613a57565b613a888185613a62565b9350613a988185602086016128f6565b613aa181612920565b840191505092915050565b6000608082019050613ac16000830187612a21565b613ace6020830186612a21565b613adb6040830185612ab7565b8181036060830152613aed8184613a73565b905095945050505050565b600081519050613b078161284b565b92915050565b600060208284031215613b2357613b22612815565b5b6000613b3184828501613af8565b91505092915050565b6000604082019050613b4f6000830185612a21565b613b5c6020830184612ab7565b939250505056fea264697066735822122069e7126a026318f644b78fc3789cd915d2aeffecb73b6c527f7ba8c6d2b17a8464736f6c63430008140033",
  "linkReferences": {},
  "deployedLinkReferences": {}
}