{
  "_format": "hh-sol-artifact-1",
  "contractName": "nftProject",
  "sourceName": "contracts/nft.sol",
  "abi": [
    {
      "inputs": [
        {
          "internalType": "string",
          "name": "_collectionName",
          "type": "string"
        },
        {
          "internalType": "uint256",
          "name": "_maxSupply",
          "type": "uint256"
        },
        {
          "internalType": "uint256",
          "name": "_mintCostInGwei",
          "type": "uint256"
        }
      ],
      "stateMutability": "nonpayable",
      "type": "constructor"
    },
    {
      "inputs": [
        {
          "internalType": "address",
          "name": "sender",
          "type": "address"
        },
        {
          "internalType": "uint256",
          "name": "tokenId",
          "type": "uint256"
        },
        {
          "internalType": "address",
          "name": "owner",
          "type": "address"
        }
      ],
      "name": "ERC721IncorrectOwner",
      "type": "error"
    },
    {
      "inputs": [
        {
          "internalType": "address",
          "name": "operator",
          "type": "address"
        },
        {
          "internalType": "uint256",
          "name": "tokenId",
          "type": "uint256"
        }
      ],
      "name": "ERC721InsufficientApproval",
      "type": "error"
    },
    {
      "inputs": [
        {
          "internalType": "address",
          "name": "approver",
          "type": "address"
        }
      ],
      "name": "ERC721InvalidApprover",
      "type": "error"
    },
    {
      "inputs": [
        {
          "internalType": "address",
          "name": "operator",
          "type": "address"
        }
      ],
      "name": "ERC721InvalidOperator",
      "type": "error"
    },
    {
      "inputs": [
        {
          "internalType": "address",
          "name": "owner",
          "type": "address"
        }
      ],
      "name": "ERC721InvalidOwner",
      "type": "error"
    },
    {
      "inputs": [
        {
          "internalType": "address",
          "name": "receiver",
          "type": "address"
        }
      ],
      "name": "ERC721InvalidReceiver",
      "type": "error"
    },
    {
      "inputs": [
        {
          "internalType": "address",
          "name": "sender",
          "type": "address"
        }
      ],
      "name": "ERC721InvalidSender",
      "type": "error"
    },
    {
      "inputs": [
        {
          "internalType": "uint256",
          "name": "tokenId",
          "type": "uint256"
        }
      ],
      "name": "ERC721NonexistentToken",
      "type": "error"
    },
    {
      "inputs": [
        {
          "internalType": "address",
          "name": "have",
          "type": "address"
        },
        {
          "internalType": "address",
          "name": "want",
          "type": "address"
        }
      ],
      "name": "OnlyCoordinatorCanFulfill",
      "type": "error"
    },
    {
      "anonymous": false,
      "inputs": [
        {
          "indexed": true,
          "internalType": "address",
          "name": "owner",
          "type": "address"
        },
        {
          "indexed": true,
          "internalType": "address",
          "name": "approved",
          "type": "address"
        },
        {
          "indexed": true,
          "internalType": "uint256",
          "name": "tokenId",
          "type": "uint256"
        }
      ],
      "name": "Approval",
      "type": "event"
    },
    {
      "anonymous": false,
      "inputs": [
        {
          "indexed": true,
          "internalType": "address",
          "name": "owner",
          "type": "address"
        },
        {
          "indexed": true,
          "internalType": "address",
          "name": "operator",
          "type": "address"
        },
        {
          "indexed": false,
          "internalType": "bool",
          "name": "approved",
          "type": "bool"
        }
      ],
      "name": "ApprovalForAll",
      "type": "event"
    },
    {
      "anonymous": false,
      "inputs": [
        {
          "indexed": true,
          "internalType": "uint256",
          "name": "nftId",
          "type": "uint256"
        },
        {
          "indexed": false,
          "internalType": "string",
          "name": "magazineName",
          "type": "string"
        },
        {
          "indexed": false,
          "internalType": "string",
          "name": "authorName",
          "type": "string"
        },
        {
          "indexed": false,
          "internalType": "string",
          "name": "description",
          "type": "string"
        },
        {
          "indexed": true,
          "internalType": "address",
          "name": "owner",
          "type": "address"
        }
      ],
      "name": "NFTCreated",
      "type": "event"
    },
    {
      "anonymous": false,
      "inputs": [
        {
          "indexed": true,
          "internalType": "uint256",
          "name": "nftId",
          "type": "uint256"
        },
        {
          "indexed": true,
          "internalType": "address",
          "name": "from",
          "type": "address"
        },
        {
          "indexed": true,
          "internalType": "address",
          "name": "to",
          "type": "address"
        }
      ],
      "name": "NFTTransferred",
      "type": "event"
    },
    {
      "anonymous": false,
      "inputs": [
        {
          "indexed": true,
          "internalType": "uint256",
          "name": "nftId",
          "type": "uint256"
        },
        {
          "indexed": true,
          "internalType": "address",
          "name": "from",
          "type": "address"
        },
        {
          "indexed": true,
          "internalType": "address",
          "name": "to",
          "type": "address"
        }
      ],
      "name": "NFTTransferredFrom",
      "type": "event"
    },
    {
      "anonymous": false,
      "inputs": [
        {
          "indexed": false,
          "internalType": "uint256",
          "name": "requestId",
          "type": "uint256"
        },
        {
          "indexed": true,
          "internalType": "address",
          "name": "requester",
          "type": "address"
        }
      ],
      "name": "RandomnessRequested",
      "type": "event"
    },
    {
      "anonymous": false,
      "inputs": [
        {
          "indexed": true,
          "internalType": "address",
          "name": "from",
          "type": "address"
        },
        {
          "indexed": true,
          "internalType": "address",
          "name": "to",
          "type": "address"
        },
        {
          "indexed": true,
          "internalType": "uint256",
          "name": "tokenId",
          "type": "uint256"
        }
      ],
      "name": "Transfer",
      "type": "event"
    },
    {
      "inputs": [
        {
          "internalType": "address",
          "name": "to",
          "type": "address"
        },
        {
          "internalType": "uint256",
          "name": "tokenId",
          "type": "uint256"
        }
      ],
      "name": "approve",
      "outputs": [],
      "stateMutability": "nonpayable",
      "type": "function"
    },
    {
      "inputs": [
        {
          "internalType": "address",
          "name": "owner",
          "type": "address"
        }
      ],
      "name": "balanceOf",
      "outputs": [
        {
          "internalType": "uint256",
          "name": "",
          "type": "uint256"
        }
      ],
      "stateMutability": "view",
      "type": "function"
    },
    {
      "inputs": [],
      "name": "collectionName",
      "outputs": [
        {
          "internalType": "string",
          "name": "",
          "type": "string"
        }
      ],
      "stateMutability": "view",
      "type": "function"
    },
    {
      "inputs": [
        {
          "internalType": "string",
          "name": "magazineName",
          "type": "string"
        },
        {
          "internalType": "string",
          "name": "authorName",
          "type": "string"
        },
        {
          "internalType": "string",
          "name": "description",
          "type": "string"
        }
      ],
      "name": "createNFT",
      "outputs": [],
      "stateMutability": "payable",
      "type": "function"
    },
    {
      "inputs": [
        {
          "internalType": "address",
          "name": "to",
          "type": "address"
        },
        {
          "internalType": "uint256",
          "name": "nftId",
          "type": "uint256"
        }
      ],
      "name": "exchangeNFT",
      "outputs": [],
      "stateMutability": "nonpayable",
      "type": "function"
    },
    {
      "inputs": [
        {
          "internalType": "uint256",
          "name": "tokenId",
          "type": "uint256"
        }
      ],
      "name": "getApproved",
      "outputs": [
        {
          "internalType": "address",
          "name": "",
          "type": "address"
        }
      ],
      "stateMutability": "view",
      "type": "function"
    },
    {
      "inputs": [
        {
          "internalType": "address",
          "name": "owner",
          "type": "address"
        },
        {
          "internalType": "address",
          "name": "operator",
          "type": "address"
        }
      ],
      "name": "isApprovedForAll",
      "outputs": [
        {
          "internalType": "bool",
          "name": "",
          "type": "bool"
        }
      ],
      "stateMutability": "view",
      "type": "function"
    },
    {
      "inputs": [],
      "name": "maxSupply",
      "outputs": [
        {
          "internalType": "uint256",
          "name": "",
          "type": "uint256"
        }
      ],
      "stateMutability": "view",
      "type": "function"
    },
    {
      "inputs": [],
      "name": "mintCost",
      "outputs": [
        {
          "internalType": "uint256",
          "name": "",
          "type": "uint256"
        }
      ],
      "stateMutability": "view",
      "type": "function"
    },
    {
      "inputs": [],
      "name": "name",
      "outputs": [
        {
          "internalType": "string",
          "name": "",
          "type": "string"
        }
      ],
      "stateMutability": "view",
      "type": "function"
    },
    {
      "inputs": [],
      "name": "nftCount",
      "outputs": [
        {
          "internalType": "uint256",
          "name": "",
          "type": "uint256"
        }
      ],
      "stateMutability": "view",
      "type": "function"
    },
    {
      "inputs": [],
      "name": "owner",
      "outputs": [
        {
          "internalType": "address",
          "name": "",
          "type": "address"
        }
      ],
      "stateMutability": "view",
      "type": "function"
    },
    {
      "inputs": [
        {
          "internalType": "uint256",
          "name": "tokenId",
          "type": "uint256"
        }
      ],
      "name": "ownerOf",
      "outputs": [
        {
          "internalType": "address",
          "name": "",
          "type": "address"
        }
      ],
      "stateMutability": "view",
      "type": "function"
    },
    {
      "inputs": [
        {
          "internalType": "uint256",
          "name": "requestId",
          "type": "uint256"
        },
        {
          "internalType": "uint256[]",
          "name": "randomWords",
          "type": "uint256[]"
        }
      ],
      "name": "rawFulfillRandomWords",
      "outputs": [],
      "stateMutability": "nonpayable",
      "type": "function"
    },
    {
      "inputs": [
        {
          "internalType": "address",
          "name": "from",
          "type": "address"
        },
        {
          "internalType": "address",
          "name": "to",
          "type": "address"
        },
        {
          "internalType": "uint256",
          "name": "tokenId",
          "type": "uint256"
        }
      ],
      "name": "safeTransferFrom",
      "outputs": [],
      "stateMutability": "nonpayable",
      "type": "function"
    },
    {
      "inputs": [
        {
          "internalType": "address",
          "name": "from",
          "type": "address"
        },
        {
          "internalType": "address",
          "name": "to",
          "type": "address"
        },
        {
          "internalType": "uint256",
          "name": "tokenId",
          "type": "uint256"
        },
        {
          "internalType": "bytes",
          "name": "data",
          "type": "bytes"
        }
      ],
      "name": "safeTransferFrom",
      "outputs": [],
      "stateMutability": "nonpayable",
      "type": "function"
    },
    {
      "inputs": [
        {
          "internalType": "address",
          "name": "operator",
          "type": "address"
        },
        {
          "internalType": "bool",
          "name": "approved",
          "type": "bool"
        }
      ],
      "name": "setApprovalForAll",
      "outputs": [],
      "stateMutability": "nonpayable",
      "type": "function"
    },
    {
      "inputs": [
        {
          "internalType": "bytes4",
          "name": "interfaceId",
          "type": "bytes4"
        }
      ],
      "name": "supportsInterface",
      "outputs": [
        {
          "internalType": "bool",
          "name": "",
          "type": "bool"
        }
      ],
      "stateMutability": "view",
      "type": "function"
    },
    {
      "inputs": [],
      "name": "symbol",
      "outputs": [
        {
          "internalType": "string",
          "name": "",
          "type": "string"
        }
      ],
      "stateMutability": "view",
      "type": "function"
    },
    {
      "inputs": [
        {
          "internalType": "uint256",
          "name": "tokenId",
          "type": "uint256"
        }
      ],
      "name": "tokenURI",
      "outputs": [
        {
          "internalType": "string",
          "name": "",
          "type": "string"
        }
      ],
      "stateMutability": "view",
      "type": "function"
    },
    {
      "inputs": [
        {
          "internalType": "address",
          "name": "from",
          "type": "address"
        },
        {
          "internalType": "address",
          "name": "to",
          "type": "address"
        },
        {
          "internalType": "uint256",
          "name": "nftId",
          "type": "uint256"
        }
      ],
      "name": "transferFrom",
      "outputs": [],
      "stateMutability": "nonpayable",
      "type": "function"
    },
    {
      "inputs": [
        {
          "internalType": "uint256",
          "name": "nftId",
          "type": "uint256"
        }
      ],
      "name": "viewNFT",
      "outputs": [
        {
          "internalType": "string",
          "name": "magazineName",
          "type": "string"
        },
        {
          "internalType": "string",
          "name": "authorName",
          "type": "string"
        },
        {
          "internalType": "string",
          "name": "description",
          "type": "string"
        },
        {
          "internalType": "string",
          "name": "collection",
          "type": "string"
        },
        {
          "internalType": "address",
          "name": "ownerAddress",
          "type": "address"
        }
      ],
      "stateMutability": "view",
      "type": "function"
    },
    {
      "inputs": [],
      "name": "withdraw",
      "outputs": [],
      "stateMutability": "nonpayable",
      "type": "function"
    }
  ],
  "bytecode": "0x60a0604052739ddfaca8183c41ad55329bdeed9f6a8d53168b1b600e60006101000a81548173ffffffffffffffffffffffffffffffffffffffff021916908373ffffffffffffffffffffffffffffffffffffffff1602179055506209ea49600e60146101000a81548167ffffffffffffffff021916908367ffffffffffffffff1602179055507f787d74caea10b2b357790d5b5247c2f63d1d91572a9846f780606e4d953677ae60001b600f55620186a0601060006101000a81548163ffffffff021916908363ffffffff1602179055506002601060046101000a81548161ffff021916908361ffff1602179055506001601060066101000a81548163ffffffff021916908363ffffffff1602179055503480156200011d57600080fd5b506040516200450638038062004506833981810160405281019062000143919062000468565b739ddfaca8183c41ad55329bdeed9f6a8d53168b1b6040518060400160405280600781526020017f4c7563614e4654000000000000000000000000000000000000000000000000008152506040518060400160405280600481526020017f4c4e4654000000000000000000000000000000000000000000000000000000008152508160009081620001d5919062000724565b508060019081620001e7919062000724565b5050508073ffffffffffffffffffffffffffffffffffffffff1660808173ffffffffffffffffffffffffffffffffffffffff16815250505033600a60006101000a81548173ffffffffffffffffffffffffffffffffffffffff021916908373ffffffffffffffffffffffffffffffffffffffff160217905550826009908162000271919062000724565b5081600781905550633b9aca00816200028b91906200083a565b60088190555050505062000885565b6000604051905090565b600080fd5b600080fd5b600080fd5b600080fd5b6000601f19601f8301169050919050565b7f4e487b7100000000000000000000000000000000000000000000000000000000600052604160045260246000fd5b6200030382620002b8565b810181811067ffffffffffffffff82111715620003255762000324620002c9565b5b80604052505050565b60006200033a6200029a565b9050620003488282620002f8565b919050565b600067ffffffffffffffff8211156200036b576200036a620002c9565b5b6200037682620002b8565b9050602081019050919050565b60005b83811015620003a357808201518184015260208101905062000386565b60008484015250505050565b6000620003c6620003c0846200034d565b6200032e565b905082815260208101848484011115620003e557620003e4620002b3565b5b620003f284828562000383565b509392505050565b600082601f830112620004125762000411620002ae565b5b815162000424848260208601620003af565b91505092915050565b6000819050919050565b62000442816200042d565b81146200044e57600080fd5b50565b600081519050620004628162000437565b92915050565b600080600060608486031215620004845762000483620002a4565b5b600084015167ffffffffffffffff811115620004a557620004a4620002a9565b5b620004b386828701620003fa565b9350506020620004c68682870162000451565b9250506040620004d98682870162000451565b9150509250925092565b600081519050919050565b7f4e487b7100000000000000000000000000000000000000000000000000000000600052602260045260246000fd5b600060028204905060018216806200053657607f821691505b6020821081036200054c576200054b620004ee565b5b50919050565b60008190508160005260206000209050919050565b60006020601f8301049050919050565b600082821b905092915050565b600060088302620005b67fffffffffffffffffffffffffffffffffffffffffffffffffffffffffffffffff8262000577565b620005c2868362000577565b95508019841693508086168417925050509392505050565b6000819050919050565b600062000605620005ff620005f9846200042d565b620005da565b6200042d565b9050919050565b6000819050919050565b6200062183620005e4565b6200063962000630826200060c565b84845462000584565b825550505050565b600090565b6200065062000641565b6200065d81848462000616565b505050565b5b8181101562000685576200067960008262000646565b60018101905062000663565b5050565b601f821115620006d4576200069e8162000552565b620006a98462000567565b81016020851015620006b9578190505b620006d1620006c88562000567565b83018262000662565b50505b505050565b600082821c905092915050565b6000620006f960001984600802620006d9565b1980831691505092915050565b6000620007148383620006e6565b9150826002028217905092915050565b6200072f82620004e3565b67ffffffffffffffff8111156200074b576200074a620002c9565b5b6200075782546200051d565b6200076482828562000689565b600060209050601f8311600181146200079c576000841562000787578287015190505b62000793858262000706565b86555062000803565b601f198416620007ac8662000552565b60005b82811015620007d657848901518255600182019150602085019450602081019050620007af565b86831015620007f65784890151620007f2601f891682620006e6565b8355505b6001600288020188555050505b505050505050565b7f4e487b7100000000000000000000000000000000000000000000000000000000600052601160045260246000fd5b600062000847826200042d565b915062000854836200042d565b925082820262000864816200042d565b915082820484148315176200087e576200087d6200080b565b5b5092915050565b608051613c5e620008a86000396000818161072101526107750152613c5e6000f3fe6080604052600436106101405760003560e01c806370a08231116100b6578063b88d4fde1161006f578063b88d4fde1461044f578063bdb4b84814610478578063c87b56dd146104a3578063d5abeb01146104e0578063e5326ab11461050b578063e985e9c51461053657610140565b806370a08231146103365780637b276f05146103735780638da5cb5b146103b457806395d89b41146103df5780639f8e9dbc1461040a578063a22cb4651461042657610140565b80631fe543e3116101085780631fe543e31461023e57806323b872dd1461026757806326e1cf33146102905780633ccfd60b146102b957806342842e0e146102d05780636352211e146102f957610140565b806301ffc9a71461014557806306fdde0314610182578063081812fc146101ad578063095ea7b3146101ea5780630af2c6ca14610213575b600080fd5b34801561015157600080fd5b5061016c600480360381019061016791906128d0565b610573565b6040516101799190612918565b60405180910390f35b34801561018e57600080fd5b50610197610655565b6040516101a491906129c3565b60405180910390f35b3480156101b957600080fd5b506101d460048036038101906101cf9190612a1b565b6106e7565b6040516101e19190612a89565b60405180910390f35b3480156101f657600080fd5b50610211600480360381019061020c9190612ad0565b610703565b005b34801561021f57600080fd5b50610228610719565b6040516102359190612b1f565b60405180910390f35b34801561024a57600080fd5b5061026560048036038101906102609190612c82565b61071f565b005b34801561027357600080fd5b5061028e60048036038101906102899190612cde565b6107df565b005b34801561029c57600080fd5b506102b760048036038101906102b29190612ad0565b61093a565b005b3480156102c557600080fd5b506102ce610a89565b005b3480156102dc57600080fd5b506102f760048036038101906102f29190612cde565b610bcd565b005b34801561030557600080fd5b50610320600480360381019061031b9190612a1b565b610bed565b60405161032d9190612a89565b60405180910390f35b34801561034257600080fd5b5061035d60048036038101906103589190612d31565b610bff565b60405161036a9190612b1f565b60405180910390f35b34801561037f57600080fd5b5061039a60048036038101906103959190612a1b565b610cb9565b6040516103ab959493929190612d5e565b60405180910390f35b3480156103c057600080fd5b506103c9610f95565b6040516103d69190612a89565b60405180910390f35b3480156103eb57600080fd5b506103f4610fbb565b60405161040191906129c3565b60405180910390f35b610424600480360381019061041f9190612e82565b61104d565b005b34801561043257600080fd5b5061044d60048036038101906104489190612f55565b61138d565b005b34801561045b57600080fd5b5061047660048036038101906104719190613036565b6113a3565b005b34801561048457600080fd5b5061048d6113c0565b60405161049a9190612b1f565b60405180910390f35b3480156104af57600080fd5b506104ca60048036038101906104c59190612a1b565b6113c6565b6040516104d791906129c3565b60405180910390f35b3480156104ec57600080fd5b506104f561142f565b6040516105029190612b1f565b60405180910390f35b34801561051757600080fd5b50610520611435565b60405161052d91906129c3565b60405180910390f35b34801561054257600080fd5b5061055d600480360381019061055891906130b9565b6114c3565b60405161056a9190612918565b60405180910390f35b60007f80ac58cd000000000000000000000000000000000000000000000000000000007bffffffffffffffffffffffffffffffffffffffffffffffffffffffff1916827bffffffffffffffffffffffffffffffffffffffffffffffffffffffff1916148061063e57507f5b5e139f000000000000000000000000000000000000000000000000000000007bffffffffffffffffffffffffffffffffffffffffffffffffffffffff1916827bffffffffffffffffffffffffffffffffffffffffffffffffffffffff1916145b8061064e575061064d82611557565b5b9050919050565b60606000805461066490613128565b80601f016020809104026020016040519081016040528092919081815260200182805461069090613128565b80156106dd5780601f106106b2576101008083540402835291602001916106dd565b820191906000526020600020905b8154815290600101906020018083116106c057829003601f168201915b5050505050905090565b60006106f2826115c1565b506106fc82611649565b9050919050565b6107158282610710611686565b61168e565b5050565b60065481565b7f000000000000000000000000000000000000000000000000000000000000000073ffffffffffffffffffffffffffffffffffffffff163373ffffffffffffffffffffffffffffffffffffffff16146107d157337f00000000000000000000000000000000000000000000000000000000000000006040517f1cf993f40000000000000000000000000000000000000000000000000000000081526004016107c8929190613159565b60405180910390fd5b6107db82826116a0565b5050565b600a60009054906101000a900473ffffffffffffffffffffffffffffffffffffffff1673ffffffffffffffffffffffffffffffffffffffff163373ffffffffffffffffffffffffffffffffffffffff161461086f576040517f08c379a0000000000000000000000000000000000000000000000000000000008152600401610866906131ce565b60405180910390fd5b600c600082815260200190815260200160002060009054906101000a900460ff166108cf576040517f08c379a00000000000000000000000000000000000000000000000000000000081526004016108c69061323a565b60405180910390fd5b6108da838383611aff565b8173ffffffffffffffffffffffffffffffffffffffff168373ffffffffffffffffffffffffffffffffffffffff16827f579590cbccc4b8935027cd7c412d018f559019b83809d05c266dfe0fb5c5dd4c60405160405180910390a4505050565b61094381610bed565b73ffffffffffffffffffffffffffffffffffffffff163373ffffffffffffffffffffffffffffffffffffffff16146109b0576040517f08c379a00000000000000000000000000000000000000000000000000000000081526004016109a7906132cc565b60405180910390fd5b600073ffffffffffffffffffffffffffffffffffffffff168273ffffffffffffffffffffffffffffffffffffffff1603610a1f576040517f08c379a0000000000000000000000000000000000000000000000000000000008152600401610a1690613338565b60405180910390fd5b610a2a338383611aff565b8173ffffffffffffffffffffffffffffffffffffffff163373ffffffffffffffffffffffffffffffffffffffff16827f67043fac5fd2bf9edbb46ee495aaed7f97f91d43507d373be2b592af19b8c0a860405160405180910390a45050565b600a60009054906101000a900473ffffffffffffffffffffffffffffffffffffffff1673ffffffffffffffffffffffffffffffffffffffff163373ffffffffffffffffffffffffffffffffffffffff1614610b19576040517f08c379a0000000000000000000000000000000000000000000000000000000008152600401610b10906131ce565b60405180910390fd5b600047905060008111610b61576040517f08c379a0000000000000000000000000000000000000000000000000000000008152600401610b58906133a4565b60405180910390fd5b600a60009054906101000a900473ffffffffffffffffffffffffffffffffffffffff1673ffffffffffffffffffffffffffffffffffffffff166108fc829081150290604051600060405180830381858888f19350505050158015610bc9573d6000803e3d6000fd5b5050565b610be8838383604051806020016040528060008152506113a3565b505050565b6000610bf8826115c1565b9050919050565b60008073ffffffffffffffffffffffffffffffffffffffff168273ffffffffffffffffffffffffffffffffffffffff1603610c725760006040517f89c62b64000000000000000000000000000000000000000000000000000000008152600401610c699190612a89565b60405180910390fd5b600360008373ffffffffffffffffffffffffffffffffffffffff1673ffffffffffffffffffffffffffffffffffffffff168152602001908152602001600020549050919050565b6060806060806000600c600087815260200190815260200160002060009054906101000a900460ff16610d21576040517f08c379a0000000000000000000000000000000000000000000000000000000008152600401610d1890613410565b60405180910390fd5b6000600b6000888152602001908152602001600020905080600001816001018260020183600301610d518b610bed565b848054610d5d90613128565b80601f0160208091040260200160405190810160405280929190818152602001828054610d8990613128565b8015610dd65780601f10610dab57610100808354040283529160200191610dd6565b820191906000526020600020905b815481529060010190602001808311610db957829003601f168201915b50505050509450838054610de990613128565b80601f0160208091040260200160405190810160405280929190818152602001828054610e1590613128565b8015610e625780601f10610e3757610100808354040283529160200191610e62565b820191906000526020600020905b815481529060010190602001808311610e4557829003601f168201915b50505050509350828054610e7590613128565b80601f0160208091040260200160405190810160405280929190818152602001828054610ea190613128565b8015610eee5780601f10610ec357610100808354040283529160200191610eee565b820191906000526020600020905b815481529060010190602001808311610ed157829003601f168201915b50505050509250818054610f0190613128565b80601f0160208091040260200160405190810160405280929190818152602001828054610f2d90613128565b8015610f7a5780601f10610f4f57610100808354040283529160200191610f7a565b820191906000526020600020905b815481529060010190602001808311610f5d57829003601f168201915b50505050509150955095509550955095505091939590929450565b600a60009054906101000a900473ffffffffffffffffffffffffffffffffffffffff1681565b606060018054610fca90613128565b80601f0160208091040260200160405190810160405280929190818152602001828054610ff690613128565b80156110435780601f1061101857610100808354040283529160200191611043565b820191906000526020600020905b81548152906001019060200180831161102657829003601f168201915b5050505050905090565b60075460065410611093576040517f08c379a000000000000000000000000000000000000000000000000000000000815260040161108a9061347c565b60405180910390fd5b6008543410156110d8576040517f08c379a00000000000000000000000000000000000000000000000000000000081526004016110cf906134e8565b60405180910390fd5b6000600e60009054906101000a900473ffffffffffffffffffffffffffffffffffffffff1673ffffffffffffffffffffffffffffffffffffffff16635d3b1d30600f54600e60149054906101000a900467ffffffffffffffff16601060049054906101000a900461ffff16601060009054906101000a900463ffffffff16601060069054906101000a900463ffffffff166040518663ffffffff1660e01b8152600401611189959493929190613580565b6020604051808303816000875af11580156111a8573d6000803e3d6000fd5b505050506040513d601f19601f820116820180604052508101906111cc91906135e8565b905033600d600083815260200190815260200160002060006101000a81548173ffffffffffffffffffffffffffffffffffffffff021916908373ffffffffffffffffffffffffffffffffffffffff1602179055503373ffffffffffffffffffffffffffffffffffffffff167f28f521cf7abd0044cba5bb040c5217ff69a4e5865f5262905018698e68fe7d00826040516112669190612b1f565b60405180910390a260405180608001604052808581526020018481526020018381526020016009805461129890613128565b80601f01602080910402602001604051908101604052809291908181526020018280546112c490613128565b80156113115780601f106112e657610100808354040283529160200191611311565b820191906000526020600020905b8154815290600101906020018083116112f457829003601f168201915b5050505050815250600b6000838152602001908152602001600020600082015181600001908161134191906137c1565b50602082015181600101908161135791906137c1565b50604082015181600201908161136d91906137c1565b50606082015181600301908161138391906137c1565b5090505050505050565b61139f611398611686565b8383611c6c565b5050565b6113ae8484846107df565b6113ba84848484611ddb565b50505050565b60085481565b60606113d1826115c1565b5060006113dc611f92565b905060008151116113fc5760405180602001604052806000815250611427565b8061140684611fa9565b6040516020016114179291906138cf565b6040516020818303038152906040525b915050919050565b60075481565b6009805461144290613128565b80601f016020809104026020016040519081016040528092919081815260200182805461146e90613128565b80156114bb5780601f10611490576101008083540402835291602001916114bb565b820191906000526020600020905b81548152906001019060200180831161149e57829003601f168201915b505050505081565b6000600560008473ffffffffffffffffffffffffffffffffffffffff1673ffffffffffffffffffffffffffffffffffffffff16815260200190815260200160002060008373ffffffffffffffffffffffffffffffffffffffff1673ffffffffffffffffffffffffffffffffffffffff16815260200190815260200160002060009054906101000a900460ff16905092915050565b60007f01ffc9a7000000000000000000000000000000000000000000000000000000007bffffffffffffffffffffffffffffffffffffffffffffffffffffffff1916827bffffffffffffffffffffffffffffffffffffffffffffffffffffffff1916149050919050565b6000806115cd83612077565b9050600073ffffffffffffffffffffffffffffffffffffffff168173ffffffffffffffffffffffffffffffffffffffff160361164057826040517f7e2732890000000000000000000000000000000000000000000000000000000081526004016116379190612b1f565b60405180910390fd5b80915050919050565b60006004600083815260200190815260200160002060009054906101000a900473ffffffffffffffffffffffffffffffffffffffff169050919050565b600033905090565b61169b83838360016120b4565b505050565b60006001600754836000815181106116bb576116ba6138f3565b5b60200260200101516116cd9190613951565b6116d791906139b1565b9050600c600082815260200190815260200160002060009054906101000a900460ff161561173a576040517f08c379a000000000000000000000000000000000000000000000000000000000815260040161173190613a31565b60405180910390fd5b6000600d600085815260200190815260200160002060009054906101000a900473ffffffffffffffffffffffffffffffffffffffff16905061177c8183612279565b6001600c600084815260200190815260200160002060006101000a81548160ff021916908315150217905550600660008154809291906117bb90613a51565b91905055506000600b60008681526020019081526020016000206040518060800160405290816000820180546117f090613128565b80601f016020809104026020016040519081016040528092919081815260200182805461181c90613128565b80156118695780601f1061183e57610100808354040283529160200191611869565b820191906000526020600020905b81548152906001019060200180831161184c57829003601f168201915b5050505050815260200160018201805461188290613128565b80601f01602080910402602001604051908101604052809291908181526020018280546118ae90613128565b80156118fb5780601f106118d0576101008083540402835291602001916118fb565b820191906000526020600020905b8154815290600101906020018083116118de57829003601f168201915b5050505050815260200160028201805461191490613128565b80601f016020809104026020016040519081016040528092919081815260200182805461194090613128565b801561198d5780601f106119625761010080835404028352916020019161198d565b820191906000526020600020905b81548152906001019060200180831161197057829003601f168201915b505050505081526020016003820180546119a690613128565b80601f01602080910402602001604051908101604052809291908181526020018280546119d290613128565b8015611a1f5780601f106119f457610100808354040283529160200191611a1f565b820191906000526020600020905b815481529060010190602001808311611a0257829003601f168201915b505050505081525050905080600b60008581526020019081526020016000206000820151816000019081611a5391906137c1565b506020820151816001019081611a6991906137c1565b506040820151816002019081611a7f91906137c1565b506060820151816003019081611a9591906137c1565b509050508173ffffffffffffffffffffffffffffffffffffffff16837f15103bf89a273396b04da5d980d4e6210e698bace58704f623b971bafaa53899836000015184602001518560400151604051611af093929190613a99565b60405180910390a35050505050565b600073ffffffffffffffffffffffffffffffffffffffff168273ffffffffffffffffffffffffffffffffffffffff1603611b715760006040517f64a0ae92000000000000000000000000000000000000000000000000000000008152600401611b689190612a89565b60405180910390fd5b6000611b7f83836000612372565b9050600073ffffffffffffffffffffffffffffffffffffffff168173ffffffffffffffffffffffffffffffffffffffff1603611bf257816040517f7e273289000000000000000000000000000000000000000000000000000000008152600401611be99190612b1f565b60405180910390fd5b8373ffffffffffffffffffffffffffffffffffffffff168173ffffffffffffffffffffffffffffffffffffffff1614611c66578382826040517f64283d7b000000000000000000000000000000000000000000000000000000008152600401611c5d93929190613ae5565b60405180910390fd5b50505050565b600073ffffffffffffffffffffffffffffffffffffffff168273ffffffffffffffffffffffffffffffffffffffff1603611cdd57816040517f5b08ba18000000000000000000000000000000000000000000000000000000008152600401611cd49190612a89565b60405180910390fd5b80600560008573ffffffffffffffffffffffffffffffffffffffff1673ffffffffffffffffffffffffffffffffffffffff16815260200190815260200160002060008473ffffffffffffffffffffffffffffffffffffffff1673ffffffffffffffffffffffffffffffffffffffff16815260200190815260200160002060006101000a81548160ff0219169083151502179055508173ffffffffffffffffffffffffffffffffffffffff168373ffffffffffffffffffffffffffffffffffffffff167f17307eab39ab6107e8899845ad3d59bd9653f200f220920489ca2b5937696c3183604051611dce9190612918565b60405180910390a3505050565b60008373ffffffffffffffffffffffffffffffffffffffff163b1115611f8c578273ffffffffffffffffffffffffffffffffffffffff1663150b7a02611e1f611686565b8685856040518563ffffffff1660e01b8152600401611e419493929190613b71565b6020604051808303816000875af1925050508015611e7d57506040513d601f19601f82011682018060405250810190611e7a9190613bd2565b60015b611f01573d8060008114611ead576040519150601f19603f3d011682016040523d82523d6000602084013e611eb2565b606091505b506000815103611ef957836040517f64a0ae92000000000000000000000000000000000000000000000000000000008152600401611ef09190612a89565b60405180910390fd5b805181602001fd5b63150b7a0260e01b7bffffffffffffffffffffffffffffffffffffffffffffffffffffffff1916817bffffffffffffffffffffffffffffffffffffffffffffffffffffffff191614611f8a57836040517f64a0ae92000000000000000000000000000000000000000000000000000000008152600401611f819190612a89565b60405180910390fd5b505b50505050565b606060405180602001604052806000815250905090565b606060006001611fb88461258c565b01905060008167ffffffffffffffff811115611fd757611fd6612b3f565b5b6040519080825280601f01601f1916602001820160405280156120095781602001600182028036833780820191505090505b509050600082602001820190505b60011561206c578080600190039150507f3031323334353637383961626364656600000000000000000000000000000000600a86061a8153600a85816120605761205f613922565b5b04945060008503612017575b819350505050919050565b60006002600083815260200190815260200160002060009054906101000a900473ffffffffffffffffffffffffffffffffffffffff169050919050565b80806120ed5750600073ffffffffffffffffffffffffffffffffffffffff168273ffffffffffffffffffffffffffffffffffffffff1614155b156122215760006120fd846115c1565b9050600073ffffffffffffffffffffffffffffffffffffffff168373ffffffffffffffffffffffffffffffffffffffff161415801561216857508273ffffffffffffffffffffffffffffffffffffffff168173ffffffffffffffffffffffffffffffffffffffff1614155b801561217b575061217981846114c3565b155b156121bd57826040517fa9fbf51f0000000000000000000000000000000000000000000000000000000081526004016121b49190612a89565b60405180910390fd5b811561221f57838573ffffffffffffffffffffffffffffffffffffffff168273ffffffffffffffffffffffffffffffffffffffff167f8c5be1e5ebec7d5bd14f71427d1e84f3dd0314c0f7b2291e5b200ac8c7c3b92560405160405180910390a45b505b836004600085815260200190815260200160002060006101000a81548173ffffffffffffffffffffffffffffffffffffffff021916908373ffffffffffffffffffffffffffffffffffffffff16021790555050505050565b600073ffffffffffffffffffffffffffffffffffffffff168273ffffffffffffffffffffffffffffffffffffffff16036122eb5760006040517f64a0ae920000000000000000000000000000000000000000000000000000000081526004016122e29190612a89565b60405180910390fd5b60006122f983836000612372565b9050600073ffffffffffffffffffffffffffffffffffffffff168173ffffffffffffffffffffffffffffffffffffffff161461236d5760006040517f73c6ac6e0000000000000000000000000000000000000000000000000000000081526004016123649190612a89565b60405180910390fd5b505050565b60008061237e84612077565b9050600073ffffffffffffffffffffffffffffffffffffffff168373ffffffffffffffffffffffffffffffffffffffff16146123c0576123bf8184866126df565b5b600073ffffffffffffffffffffffffffffffffffffffff168173ffffffffffffffffffffffffffffffffffffffff1614612451576124026000856000806120b4565b6001600360008373ffffffffffffffffffffffffffffffffffffffff1673ffffffffffffffffffffffffffffffffffffffff168152602001908152602001600020600082825403925050819055505b600073ffffffffffffffffffffffffffffffffffffffff168573ffffffffffffffffffffffffffffffffffffffff16146124d4576001600360008773ffffffffffffffffffffffffffffffffffffffff1673ffffffffffffffffffffffffffffffffffffffff168152602001908152602001600020600082825401925050819055505b846002600086815260200190815260200160002060006101000a81548173ffffffffffffffffffffffffffffffffffffffff021916908373ffffffffffffffffffffffffffffffffffffffff160217905550838573ffffffffffffffffffffffffffffffffffffffff168273ffffffffffffffffffffffffffffffffffffffff167fddf252ad1be2c89b69c2b068fc378daa952ba7f163c4a11628f55a4df523b3ef60405160405180910390a4809150509392505050565b600080600090507a184f03e93ff9f4daa797ed6e38ed64bf6a1f01000000000000000083106125ea577a184f03e93ff9f4daa797ed6e38ed64bf6a1f01000000000000000083816125e0576125df613922565b5b0492506040810190505b6d04ee2d6d415b85acef81000000008310612627576d04ee2d6d415b85acef8100000000838161261d5761261c613922565b5b0492506020810190505b662386f26fc10000831061265657662386f26fc10000838161264c5761264b613922565b5b0492506010810190505b6305f5e100831061267f576305f5e100838161267557612674613922565b5b0492506008810190505b61271083106126a457612710838161269a57612699613922565b5b0492506004810190505b606483106126c757606483816126bd576126bc613922565b5b0492506002810190505b600a83106126d6576001810190505b80915050919050565b6126ea8383836127a3565b61279e57600073ffffffffffffffffffffffffffffffffffffffff168373ffffffffffffffffffffffffffffffffffffffff160361275f57806040517f7e2732890000000000000000000000000000000000000000000000000000000081526004016127569190612b1f565b60405180910390fd5b81816040517f177e802f000000000000000000000000000000000000000000000000000000008152600401612795929190613bff565b60405180910390fd5b505050565b60008073ffffffffffffffffffffffffffffffffffffffff168373ffffffffffffffffffffffffffffffffffffffff161415801561285b57508273ffffffffffffffffffffffffffffffffffffffff168473ffffffffffffffffffffffffffffffffffffffff16148061281c575061281b84846114c3565b5b8061285a57508273ffffffffffffffffffffffffffffffffffffffff1661284283611649565b73ffffffffffffffffffffffffffffffffffffffff16145b5b90509392505050565b6000604051905090565b600080fd5b600080fd5b60007fffffffff0000000000000000000000000000000000000000000000000000000082169050919050565b6128ad81612878565b81146128b857600080fd5b50565b6000813590506128ca816128a4565b92915050565b6000602082840312156128e6576128e561286e565b5b60006128f4848285016128bb565b91505092915050565b60008115159050919050565b612912816128fd565b82525050565b600060208201905061292d6000830184612909565b92915050565b600081519050919050565b600082825260208201905092915050565b60005b8381101561296d578082015181840152602081019050612952565b60008484015250505050565b6000601f19601f8301169050919050565b600061299582612933565b61299f818561293e565b93506129af81856020860161294f565b6129b881612979565b840191505092915050565b600060208201905081810360008301526129dd818461298a565b905092915050565b6000819050919050565b6129f8816129e5565b8114612a0357600080fd5b50565b600081359050612a15816129ef565b92915050565b600060208284031215612a3157612a3061286e565b5b6000612a3f84828501612a06565b91505092915050565b600073ffffffffffffffffffffffffffffffffffffffff82169050919050565b6000612a7382612a48565b9050919050565b612a8381612a68565b82525050565b6000602082019050612a9e6000830184612a7a565b92915050565b612aad81612a68565b8114612ab857600080fd5b50565b600081359050612aca81612aa4565b92915050565b60008060408385031215612ae757612ae661286e565b5b6000612af585828601612abb565b9250506020612b0685828601612a06565b9150509250929050565b612b19816129e5565b82525050565b6000602082019050612b346000830184612b10565b92915050565b600080fd5b7f4e487b7100000000000000000000000000000000000000000000000000000000600052604160045260246000fd5b612b7782612979565b810181811067ffffffffffffffff82111715612b9657612b95612b3f565b5b80604052505050565b6000612ba9612864565b9050612bb58282612b6e565b919050565b600067ffffffffffffffff821115612bd557612bd4612b3f565b5b602082029050602081019050919050565b600080fd5b6000612bfe612bf984612bba565b612b9f565b90508083825260208201905060208402830185811115612c2157612c20612be6565b5b835b81811015612c4a5780612c368882612a06565b845260208401935050602081019050612c23565b5050509392505050565b600082601f830112612c6957612c68612b3a565b5b8135612c79848260208601612beb565b91505092915050565b60008060408385031215612c9957612c9861286e565b5b6000612ca785828601612a06565b925050602083013567ffffffffffffffff811115612cc857612cc7612873565b5b612cd485828601612c54565b9150509250929050565b600080600060608486031215612cf757612cf661286e565b5b6000612d0586828701612abb565b9350506020612d1686828701612abb565b9250506040612d2786828701612a06565b9150509250925092565b600060208284031215612d4757612d4661286e565b5b6000612d5584828501612abb565b91505092915050565b600060a0820190508181036000830152612d78818861298a565b90508181036020830152612d8c818761298a565b90508181036040830152612da0818661298a565b90508181036060830152612db4818561298a565b9050612dc36080830184612a7a565b9695505050505050565b600080fd5b600067ffffffffffffffff821115612ded57612dec612b3f565b5b612df682612979565b9050602081019050919050565b82818337600083830152505050565b6000612e25612e2084612dd2565b612b9f565b905082815260208101848484011115612e4157612e40612dcd565b5b612e4c848285612e03565b509392505050565b600082601f830112612e6957612e68612b3a565b5b8135612e79848260208601612e12565b91505092915050565b600080600060608486031215612e9b57612e9a61286e565b5b600084013567ffffffffffffffff811115612eb957612eb8612873565b5b612ec586828701612e54565b935050602084013567ffffffffffffffff811115612ee657612ee5612873565b5b612ef286828701612e54565b925050604084013567ffffffffffffffff811115612f1357612f12612873565b5b612f1f86828701612e54565b9150509250925092565b612f32816128fd565b8114612f3d57600080fd5b50565b600081359050612f4f81612f29565b92915050565b60008060408385031215612f6c57612f6b61286e565b5b6000612f7a85828601612abb565b9250506020612f8b85828601612f40565b9150509250929050565b600067ffffffffffffffff821115612fb057612faf612b3f565b5b612fb982612979565b9050602081019050919050565b6000612fd9612fd484612f95565b612b9f565b905082815260208101848484011115612ff557612ff4612dcd565b5b613000848285612e03565b509392505050565b600082601f83011261301d5761301c612b3a565b5b813561302d848260208601612fc6565b91505092915050565b600080600080608085870312156130505761304f61286e565b5b600061305e87828801612abb565b945050602061306f87828801612abb565b935050604061308087828801612a06565b925050606085013567ffffffffffffffff8111156130a1576130a0612873565b5b6130ad87828801613008565b91505092959194509250565b600080604083850312156130d0576130cf61286e565b5b60006130de85828601612abb565b92505060206130ef85828601612abb565b9150509250929050565b7f4e487b7100000000000000000000000000000000000000000000000000000000600052602260045260246000fd5b6000600282049050600182168061314057607f821691505b602082108103613153576131526130f9565b5b50919050565b600060408201905061316e6000830185612a7a565b61317b6020830184612a7a565b9392505050565b7f4e6f742074686520636f6e7472616374206f776e657200000000000000000000600082015250565b60006131b860168361293e565b91506131c382613182565b602082019050919050565b600060208201905081810360008301526131e7816131ab565b9050919050565b7f4e667420646f6573206e6f742065786973740000000000000000000000000000600082015250565b600061322460128361293e565b915061322f826131ee565b602082019050919050565b6000602082019050818103600083015261325381613217565b9050919050565b7f596f7520617265206e6f7420746865206f776e6572206f662074686973204e4660008201527f5400000000000000000000000000000000000000000000000000000000000000602082015250565b60006132b660218361293e565b91506132c18261325a565b604082019050919050565b600060208201905081810360008301526132e5816132a9565b9050919050565b7f496e76616c696420616464726573730000000000000000000000000000000000600082015250565b6000613322600f8361293e565b915061332d826132ec565b602082019050919050565b6000602082019050818103600083015261335181613315565b9050919050565b7f4e6f2066756e647320746f207769746864726177000000000000000000000000600082015250565b600061338e60148361293e565b915061339982613358565b602082019050919050565b600060208201905081810360008301526133bd81613381565b9050919050565b7f4e465420646f6573206e6f742065786973740000000000000000000000000000600082015250565b60006133fa60128361293e565b9150613405826133c4565b602082019050919050565b60006020820190508181036000830152613429816133ed565b9050919050565b7f4d617820737570706c7920726561636865640000000000000000000000000000600082015250565b600061346660128361293e565b915061347182613430565b602082019050919050565b6000602082019050818103600083015261349581613459565b9050919050565b7f4e6f7420656e6f75676820657468657220746f20637265617465204e46540000600082015250565b60006134d2601e8361293e565b91506134dd8261349c565b602082019050919050565b60006020820190508181036000830152613501816134c5565b9050919050565b6000819050919050565b61351b81613508565b82525050565b600067ffffffffffffffff82169050919050565b61353e81613521565b82525050565b600061ffff82169050919050565b61355b81613544565b82525050565b600063ffffffff82169050919050565b61357a81613561565b82525050565b600060a0820190506135956000830188613512565b6135a26020830187613535565b6135af6040830186613552565b6135bc6060830185613571565b6135c96080830184613571565b9695505050505050565b6000815190506135e2816129ef565b92915050565b6000602082840312156135fe576135fd61286e565b5b600061360c848285016135d3565b91505092915050565b60008190508160005260206000209050919050565b60006020601f8301049050919050565b600082821b905092915050565b6000600883026136777fffffffffffffffffffffffffffffffffffffffffffffffffffffffffffffffff8261363a565b613681868361363a565b95508019841693508086168417925050509392505050565b6000819050919050565b60006136be6136b96136b4846129e5565b613699565b6129e5565b9050919050565b6000819050919050565b6136d8836136a3565b6136ec6136e4826136c5565b848454613647565b825550505050565b600090565b6137016136f4565b61370c8184846136cf565b505050565b5b81811015613730576137256000826136f9565b600181019050613712565b5050565b601f8211156137755761374681613615565b61374f8461362a565b8101602085101561375e578190505b61377261376a8561362a565b830182613711565b50505b505050565b600082821c905092915050565b60006137986000198460080261377a565b1980831691505092915050565b60006137b18383613787565b9150826002028217905092915050565b6137ca82612933565b67ffffffffffffffff8111156137e3576137e2612b3f565b5b6137ed8254613128565b6137f8828285613734565b600060209050601f83116001811461382b5760008415613819578287015190505b61382385826137a5565b86555061388b565b601f19841661383986613615565b60005b828110156138615784890151825560018201915060208501945060208101905061383c565b8683101561387e578489015161387a601f891682613787565b8355505b6001600288020188555050505b505050505050565b600081905092915050565b60006138a982612933565b6138b38185613893565b93506138c381856020860161294f565b80840191505092915050565b60006138db828561389e565b91506138e7828461389e565b91508190509392505050565b7f4e487b7100000000000000000000000000000000000000000000000000000000600052603260045260246000fd5b7f4e487b7100000000000000000000000000000000000000000000000000000000600052601260045260246000fd5b600061395c826129e5565b9150613967836129e5565b92508261397757613976613922565b5b828206905092915050565b7f4e487b7100000000000000000000000000000000000000000000000000000000600052601160045260246000fd5b60006139bc826129e5565b91506139c7836129e5565b92508282019050808211156139df576139de613982565b5b92915050565b7f4e465420494420616c7265616479206578697374730000000000000000000000600082015250565b6000613a1b60158361293e565b9150613a26826139e5565b602082019050919050565b60006020820190508181036000830152613a4a81613a0e565b9050919050565b6000613a5c826129e5565b91507fffffffffffffffffffffffffffffffffffffffffffffffffffffffffffffffff8203613a8e57613a8d613982565b5b600182019050919050565b60006060820190508181036000830152613ab3818661298a565b90508181036020830152613ac7818561298a565b90508181036040830152613adb818461298a565b9050949350505050565b6000606082019050613afa6000830186612a7a565b613b076020830185612b10565b613b146040830184612a7a565b949350505050565b600081519050919050565b600082825260208201905092915050565b6000613b4382613b1c565b613b4d8185613b27565b9350613b5d81856020860161294f565b613b6681612979565b840191505092915050565b6000608082019050613b866000830187612a7a565b613b936020830186612a7a565b613ba06040830185612b10565b8181036060830152613bb28184613b38565b905095945050505050565b600081519050613bcc816128a4565b92915050565b600060208284031215613be857613be761286e565b5b6000613bf684828501613bbd565b91505092915050565b6000604082019050613c146000830185612a7a565b613c216020830184612b10565b939250505056fea26469706673582212202e904e89ccc2d8c9d95cde36fb206b9094b032c45357f9463c9481923a95aef464736f6c63430008140033",
  "linkReferences": {},
  "deployedLinkReferences": {}
}