{
  "_format": "hh-sol-artifact-1",
  "contractName": "SimpleNFT",
  "sourceName": "contracts/contratto-senza-chainlink.sol",
  "abi": [
    {
      "inputs": [
        {
          "internalType": "string",
          "name": "_collectionName",
          "type": "string"
        },
        {
          "internalType": "uint256",
          "name": "_maxSupply",
          "type": "uint256"
        },
        {
          "internalType": "uint256",
          "name": "_mintCostInEther",
          "type": "uint256"
        }
      ],
      "stateMutability": "nonpayable",
      "type": "constructor"
    },
    {
      "inputs": [
        {
          "internalType": "address",
          "name": "sender",
          "type": "address"
        },
        {
          "internalType": "uint256",
          "name": "tokenId",
          "type": "uint256"
        },
        {
          "internalType": "address",
          "name": "owner",
          "type": "address"
        }
      ],
      "name": "ERC721IncorrectOwner",
      "type": "error"
    },
    {
      "inputs": [
        {
          "internalType": "address",
          "name": "operator",
          "type": "address"
        },
        {
          "internalType": "uint256",
          "name": "tokenId",
          "type": "uint256"
        }
      ],
      "name": "ERC721InsufficientApproval",
      "type": "error"
    },
    {
      "inputs": [
        {
          "internalType": "address",
          "name": "approver",
          "type": "address"
        }
      ],
      "name": "ERC721InvalidApprover",
      "type": "error"
    },
    {
      "inputs": [
        {
          "internalType": "address",
          "name": "operator",
          "type": "address"
        }
      ],
      "name": "ERC721InvalidOperator",
      "type": "error"
    },
    {
      "inputs": [
        {
          "internalType": "address",
          "name": "owner",
          "type": "address"
        }
      ],
      "name": "ERC721InvalidOwner",
      "type": "error"
    },
    {
      "inputs": [
        {
          "internalType": "address",
          "name": "receiver",
          "type": "address"
        }
      ],
      "name": "ERC721InvalidReceiver",
      "type": "error"
    },
    {
      "inputs": [
        {
          "internalType": "address",
          "name": "sender",
          "type": "address"
        }
      ],
      "name": "ERC721InvalidSender",
      "type": "error"
    },
    {
      "inputs": [
        {
          "internalType": "uint256",
          "name": "tokenId",
          "type": "uint256"
        }
      ],
      "name": "ERC721NonexistentToken",
      "type": "error"
    },
    {
      "anonymous": false,
      "inputs": [
        {
          "indexed": true,
          "internalType": "address",
          "name": "owner",
          "type": "address"
        },
        {
          "indexed": true,
          "internalType": "address",
          "name": "approved",
          "type": "address"
        },
        {
          "indexed": true,
          "internalType": "uint256",
          "name": "tokenId",
          "type": "uint256"
        }
      ],
      "name": "Approval",
      "type": "event"
    },
    {
      "anonymous": false,
      "inputs": [
        {
          "indexed": true,
          "internalType": "address",
          "name": "owner",
          "type": "address"
        },
        {
          "indexed": true,
          "internalType": "address",
          "name": "operator",
          "type": "address"
        },
        {
          "indexed": false,
          "internalType": "bool",
          "name": "approved",
          "type": "bool"
        }
      ],
      "name": "ApprovalForAll",
      "type": "event"
    },
    {
      "anonymous": false,
      "inputs": [
        {
          "indexed": true,
          "internalType": "uint256",
          "name": "nftId",
          "type": "uint256"
        },
        {
          "indexed": false,
          "internalType": "string",
          "name": "magazineName",
          "type": "string"
        },
        {
          "indexed": false,
          "internalType": "string",
          "name": "authorName",
          "type": "string"
        },
        {
          "indexed": false,
          "internalType": "string",
          "name": "description",
          "type": "string"
        },
        {
          "indexed": true,
          "internalType": "address",
          "name": "owner",
          "type": "address"
        }
      ],
      "name": "NFTCreated",
      "type": "event"
    },
    {
      "anonymous": false,
      "inputs": [
        {
          "indexed": true,
          "internalType": "uint256",
          "name": "nftId",
          "type": "uint256"
        },
        {
          "indexed": true,
          "internalType": "address",
          "name": "from",
          "type": "address"
        },
        {
          "indexed": true,
          "internalType": "address",
          "name": "to",
          "type": "address"
        }
      ],
      "name": "NFTTransferred",
      "type": "event"
    },
    {
      "anonymous": false,
      "inputs": [
        {
          "indexed": true,
          "internalType": "address",
          "name": "from",
          "type": "address"
        },
        {
          "indexed": true,
          "internalType": "address",
          "name": "to",
          "type": "address"
        },
        {
          "indexed": true,
          "internalType": "uint256",
          "name": "tokenId",
          "type": "uint256"
        }
      ],
      "name": "Transfer",
      "type": "event"
    },
    {
      "inputs": [
        {
          "internalType": "address",
          "name": "to",
          "type": "address"
        },
        {
          "internalType": "uint256",
          "name": "tokenId",
          "type": "uint256"
        }
      ],
      "name": "approve",
      "outputs": [],
      "stateMutability": "nonpayable",
      "type": "function"
    },
    {
      "inputs": [
        {
          "internalType": "address",
          "name": "owner",
          "type": "address"
        }
      ],
      "name": "balanceOf",
      "outputs": [
        {
          "internalType": "uint256",
          "name": "",
          "type": "uint256"
        }
      ],
      "stateMutability": "view",
      "type": "function"
    },
    {
      "inputs": [],
      "name": "collectionName",
      "outputs": [
        {
          "internalType": "string",
          "name": "",
          "type": "string"
        }
      ],
      "stateMutability": "view",
      "type": "function"
    },
    {
      "inputs": [
        {
          "internalType": "string",
          "name": "magazineName",
          "type": "string"
        },
        {
          "internalType": "string",
          "name": "authorName",
          "type": "string"
        },
        {
          "internalType": "string",
          "name": "description",
          "type": "string"
        }
      ],
      "name": "createNFT",
      "outputs": [],
      "stateMutability": "payable",
      "type": "function"
    },
    {
      "inputs": [
        {
          "internalType": "address",
          "name": "to",
          "type": "address"
        },
        {
          "internalType": "uint256",
          "name": "nftId",
          "type": "uint256"
        }
      ],
      "name": "exchangeNFT",
      "outputs": [],
      "stateMutability": "nonpayable",
      "type": "function"
    },
    {
      "inputs": [
        {
          "internalType": "uint256",
          "name": "tokenId",
          "type": "uint256"
        }
      ],
      "name": "getApproved",
      "outputs": [
        {
          "internalType": "address",
          "name": "",
          "type": "address"
        }
      ],
      "stateMutability": "view",
      "type": "function"
    },
    {
      "inputs": [
        {
          "internalType": "address",
          "name": "owner",
          "type": "address"
        },
        {
          "internalType": "address",
          "name": "operator",
          "type": "address"
        }
      ],
      "name": "isApprovedForAll",
      "outputs": [
        {
          "internalType": "bool",
          "name": "",
          "type": "bool"
        }
      ],
      "stateMutability": "view",
      "type": "function"
    },
    {
      "inputs": [],
      "name": "maxSupply",
      "outputs": [
        {
          "internalType": "uint256",
          "name": "",
          "type": "uint256"
        }
      ],
      "stateMutability": "view",
      "type": "function"
    },
    {
      "inputs": [],
      "name": "mintCost",
      "outputs": [
        {
          "internalType": "uint256",
          "name": "",
          "type": "uint256"
        }
      ],
      "stateMutability": "view",
      "type": "function"
    },
    {
      "inputs": [],
      "name": "name",
      "outputs": [
        {
          "internalType": "string",
          "name": "",
          "type": "string"
        }
      ],
      "stateMutability": "view",
      "type": "function"
    },
    {
      "inputs": [],
      "name": "nftCount",
      "outputs": [
        {
          "internalType": "uint256",
          "name": "",
          "type": "uint256"
        }
      ],
      "stateMutability": "view",
      "type": "function"
    },
    {
      "inputs": [],
      "name": "owner",
      "outputs": [
        {
          "internalType": "address",
          "name": "",
          "type": "address"
        }
      ],
      "stateMutability": "view",
      "type": "function"
    },
    {
      "inputs": [
        {
          "internalType": "uint256",
          "name": "tokenId",
          "type": "uint256"
        }
      ],
      "name": "ownerOf",
      "outputs": [
        {
          "internalType": "address",
          "name": "",
          "type": "address"
        }
      ],
      "stateMutability": "view",
      "type": "function"
    },
    {
      "inputs": [
        {
          "internalType": "address",
          "name": "from",
          "type": "address"
        },
        {
          "internalType": "address",
          "name": "to",
          "type": "address"
        },
        {
          "internalType": "uint256",
          "name": "tokenId",
          "type": "uint256"
        }
      ],
      "name": "safeTransferFrom",
      "outputs": [],
      "stateMutability": "nonpayable",
      "type": "function"
    },
    {
      "inputs": [
        {
          "internalType": "address",
          "name": "from",
          "type": "address"
        },
        {
          "internalType": "address",
          "name": "to",
          "type": "address"
        },
        {
          "internalType": "uint256",
          "name": "tokenId",
          "type": "uint256"
        },
        {
          "internalType": "bytes",
          "name": "data",
          "type": "bytes"
        }
      ],
      "name": "safeTransferFrom",
      "outputs": [],
      "stateMutability": "nonpayable",
      "type": "function"
    },
    {
      "inputs": [
        {
          "internalType": "address",
          "name": "operator",
          "type": "address"
        },
        {
          "internalType": "bool",
          "name": "approved",
          "type": "bool"
        }
      ],
      "name": "setApprovalForAll",
      "outputs": [],
      "stateMutability": "nonpayable",
      "type": "function"
    },
    {
      "inputs": [
        {
          "internalType": "bytes4",
          "name": "interfaceId",
          "type": "bytes4"
        }
      ],
      "name": "supportsInterface",
      "outputs": [
        {
          "internalType": "bool",
          "name": "",
          "type": "bool"
        }
      ],
      "stateMutability": "view",
      "type": "function"
    },
    {
      "inputs": [],
      "name": "symbol",
      "outputs": [
        {
          "internalType": "string",
          "name": "",
          "type": "string"
        }
      ],
      "stateMutability": "view",
      "type": "function"
    },
    {
      "inputs": [
        {
          "internalType": "uint256",
          "name": "tokenId",
          "type": "uint256"
        }
      ],
      "name": "tokenURI",
      "outputs": [
        {
          "internalType": "string",
          "name": "",
          "type": "string"
        }
      ],
      "stateMutability": "view",
      "type": "function"
    },
    {
      "inputs": [
        {
          "internalType": "address",
          "name": "from",
          "type": "address"
        },
        {
          "internalType": "address",
          "name": "to",
          "type": "address"
        },
        {
          "internalType": "uint256",
          "name": "tokenId",
          "type": "uint256"
        }
      ],
      "name": "transferFrom",
      "outputs": [],
      "stateMutability": "nonpayable",
      "type": "function"
    },
    {
      "inputs": [
        {
          "internalType": "uint256",
          "name": "nftId",
          "type": "uint256"
        }
      ],
      "name": "viewNFT",
      "outputs": [
        {
          "internalType": "string",
          "name": "magazineName",
          "type": "string"
        },
        {
          "internalType": "string",
          "name": "authorName",
          "type": "string"
        },
        {
          "internalType": "string",
          "name": "description",
          "type": "string"
        },
        {
          "internalType": "string",
          "name": "collection",
          "type": "string"
        },
        {
          "internalType": "address",
          "name": "ownerAddress",
          "type": "address"
        }
      ],
      "stateMutability": "view",
      "type": "function"
    },
    {
      "inputs": [],
      "name": "withdraw",
      "outputs": [],
      "stateMutability": "nonpayable",
      "type": "function"
    }
  ],
  "bytecode": "0x60806040523480156200001157600080fd5b506040516200394138038062003941833981810160405281019062000037919062000316565b6040518060400160405280600781526020017f4c7563614e4654000000000000000000000000000000000000000000000000008152506040518060400160405280600481526020017f4c4e4654000000000000000000000000000000000000000000000000000000008152508160009081620000b49190620005d2565b508060019081620000c69190620005d2565b50505033600a60006101000a81548173ffffffffffffffffffffffffffffffffffffffff021916908373ffffffffffffffffffffffffffffffffffffffff16021790555082600990816200011b9190620005d2565b5081600781905550670de0b6b3a764000081620001399190620006e8565b60088190555050505062000733565b6000604051905090565b600080fd5b600080fd5b600080fd5b600080fd5b6000601f19601f8301169050919050565b7f4e487b7100000000000000000000000000000000000000000000000000000000600052604160045260246000fd5b620001b18262000166565b810181811067ffffffffffffffff82111715620001d357620001d262000177565b5b80604052505050565b6000620001e862000148565b9050620001f68282620001a6565b919050565b600067ffffffffffffffff82111562000219576200021862000177565b5b620002248262000166565b9050602081019050919050565b60005b838110156200025157808201518184015260208101905062000234565b60008484015250505050565b6000620002746200026e84620001fb565b620001dc565b90508281526020810184848401111562000293576200029262000161565b5b620002a084828562000231565b509392505050565b600082601f830112620002c057620002bf6200015c565b5b8151620002d28482602086016200025d565b91505092915050565b6000819050919050565b620002f081620002db565b8114620002fc57600080fd5b50565b6000815190506200031081620002e5565b92915050565b60008060006060848603121562000332576200033162000152565b5b600084015167ffffffffffffffff81111562000353576200035262000157565b5b6200036186828701620002a8565b93505060206200037486828701620002ff565b92505060406200038786828701620002ff565b9150509250925092565b600081519050919050565b7f4e487b7100000000000000000000000000000000000000000000000000000000600052602260045260246000fd5b60006002820490506001821680620003e457607f821691505b602082108103620003fa57620003f96200039c565b5b50919050565b60008190508160005260206000209050919050565b60006020601f8301049050919050565b600082821b905092915050565b600060088302620004647fffffffffffffffffffffffffffffffffffffffffffffffffffffffffffffffff8262000425565b62000470868362000425565b95508019841693508086168417925050509392505050565b6000819050919050565b6000620004b3620004ad620004a784620002db565b62000488565b620002db565b9050919050565b6000819050919050565b620004cf8362000492565b620004e7620004de82620004ba565b84845462000432565b825550505050565b600090565b620004fe620004ef565b6200050b818484620004c4565b505050565b5b81811015620005335762000527600082620004f4565b60018101905062000511565b5050565b601f82111562000582576200054c8162000400565b620005578462000415565b8101602085101562000567578190505b6200057f620005768562000415565b83018262000510565b50505b505050565b600082821c905092915050565b6000620005a76000198460080262000587565b1980831691505092915050565b6000620005c2838362000594565b9150826002028217905092915050565b620005dd8262000391565b67ffffffffffffffff811115620005f957620005f862000177565b5b620006058254620003cb565b6200061282828562000537565b600060209050601f8311600181146200064a576000841562000635578287015190505b620006418582620005b4565b865550620006b1565b601f1984166200065a8662000400565b60005b8281101562000684578489015182556001820191506020850194506020810190506200065d565b86831015620006a45784890151620006a0601f89168262000594565b8355505b6001600288020188555050505b505050505050565b7f4e487b7100000000000000000000000000000000000000000000000000000000600052601160045260246000fd5b6000620006f582620002db565b91506200070283620002db565b92508282026200071281620002db565b915082820484148315176200072c576200072b620006b9565b5b5092915050565b6131fe80620007436000396000f3fe6080604052600436106101355760003560e01c80637b276f05116100ab578063b88d4fde1161006f578063b88d4fde1461041b578063bdb4b84814610444578063c87b56dd1461046f578063d5abeb01146104ac578063e5326ab1146104d7578063e985e9c51461050257610135565b80637b276f051461033f5780638da5cb5b1461038057806395d89b41146103ab5780639f8e9dbc146103d6578063a22cb465146103f257610135565b806323b872dd116100fd57806323b872dd1461023357806326e1cf331461025c5780633ccfd60b1461028557806342842e0e1461029c5780636352211e146102c557806370a082311461030257610135565b806301ffc9a71461013a57806306fdde0314610177578063081812fc146101a2578063095ea7b3146101df5780630af2c6ca14610208575b600080fd5b34801561014657600080fd5b50610161600480360381019061015c9190612236565b61053f565b60405161016e919061227e565b60405180910390f35b34801561018357600080fd5b5061018c610621565b6040516101999190612329565b60405180910390f35b3480156101ae57600080fd5b506101c960048036038101906101c49190612381565b6106b3565b6040516101d691906123ef565b60405180910390f35b3480156101eb57600080fd5b5061020660048036038101906102019190612436565b6106cf565b005b34801561021457600080fd5b5061021d6106e5565b60405161022a9190612485565b60405180910390f35b34801561023f57600080fd5b5061025a600480360381019061025591906124a0565b6106eb565b005b34801561026857600080fd5b50610283600480360381019061027e9190612436565b6107ed565b005b34801561029157600080fd5b5061029a61093c565b005b3480156102a857600080fd5b506102c360048036038101906102be91906124a0565b610a80565b005b3480156102d157600080fd5b506102ec60048036038101906102e79190612381565b610aa0565b6040516102f991906123ef565b60405180910390f35b34801561030e57600080fd5b50610329600480360381019061032491906124f3565b610ab2565b6040516103369190612485565b60405180910390f35b34801561034b57600080fd5b5061036660048036038101906103619190612381565b610b6c565b604051610377959493929190612520565b60405180910390f35b34801561038c57600080fd5b50610395610e48565b6040516103a291906123ef565b60405180910390f35b3480156103b757600080fd5b506103c0610e6e565b6040516103cd9190612329565b60405180910390f35b6103f060048036038101906103eb91906126c4565b610f00565b005b3480156103fe57600080fd5b5061041960048036038101906104149190612797565b611152565b005b34801561042757600080fd5b50610442600480360381019061043d9190612878565b611168565b005b34801561045057600080fd5b50610459611185565b6040516104669190612485565b60405180910390f35b34801561047b57600080fd5b5061049660048036038101906104919190612381565b61118b565b6040516104a39190612329565b60405180910390f35b3480156104b857600080fd5b506104c16111f4565b6040516104ce9190612485565b60405180910390f35b3480156104e357600080fd5b506104ec6111fa565b6040516104f99190612329565b60405180910390f35b34801561050e57600080fd5b50610529600480360381019061052491906128fb565b611288565b604051610536919061227e565b60405180910390f35b60007f80ac58cd000000000000000000000000000000000000000000000000000000007bffffffffffffffffffffffffffffffffffffffffffffffffffffffff1916827bffffffffffffffffffffffffffffffffffffffffffffffffffffffff1916148061060a57507f5b5e139f000000000000000000000000000000000000000000000000000000007bffffffffffffffffffffffffffffffffffffffffffffffffffffffff1916827bffffffffffffffffffffffffffffffffffffffffffffffffffffffff1916145b8061061a57506106198261131c565b5b9050919050565b6060600080546106309061296a565b80601f016020809104026020016040519081016040528092919081815260200182805461065c9061296a565b80156106a95780601f1061067e576101008083540402835291602001916106a9565b820191906000526020600020905b81548152906001019060200180831161068c57829003601f168201915b5050505050905090565b60006106be82611386565b506106c88261140e565b9050919050565b6106e182826106dc61144b565b611453565b5050565b60065481565b600073ffffffffffffffffffffffffffffffffffffffff168273ffffffffffffffffffffffffffffffffffffffff160361075d5760006040517f64a0ae9200000000000000000000000000000000000000000000000000000000815260040161075491906123ef565b60405180910390fd5b6000610771838361076c61144b565b611465565b90508373ffffffffffffffffffffffffffffffffffffffff168173ffffffffffffffffffffffffffffffffffffffff16146107e7578382826040517f64283d7b0000000000000000000000000000000000000000000000000000000081526004016107de9392919061299b565b60405180910390fd5b50505050565b6107f681610aa0565b73ffffffffffffffffffffffffffffffffffffffff163373ffffffffffffffffffffffffffffffffffffffff1614610863576040517f08c379a000000000000000000000000000000000000000000000000000000000815260040161085a90612a44565b60405180910390fd5b600073ffffffffffffffffffffffffffffffffffffffff168273ffffffffffffffffffffffffffffffffffffffff16036108d2576040517f08c379a00000000000000000000000000000000000000000000000000000000081526004016108c990612ab0565b60405180910390fd5b6108dd33838361167f565b8173ffffffffffffffffffffffffffffffffffffffff163373ffffffffffffffffffffffffffffffffffffffff16827f67043fac5fd2bf9edbb46ee495aaed7f97f91d43507d373be2b592af19b8c0a860405160405180910390a45050565b600a60009054906101000a900473ffffffffffffffffffffffffffffffffffffffff1673ffffffffffffffffffffffffffffffffffffffff163373ffffffffffffffffffffffffffffffffffffffff16146109cc576040517f08c379a00000000000000000000000000000000000000000000000000000000081526004016109c390612b1c565b60405180910390fd5b600047905060008111610a14576040517f08c379a0000000000000000000000000000000000000000000000000000000008152600401610a0b90612b88565b60405180910390fd5b600a60009054906101000a900473ffffffffffffffffffffffffffffffffffffffff1673ffffffffffffffffffffffffffffffffffffffff166108fc829081150290604051600060405180830381858888f19350505050158015610a7c573d6000803e3d6000fd5b5050565b610a9b83838360405180602001604052806000815250611168565b505050565b6000610aab82611386565b9050919050565b60008073ffffffffffffffffffffffffffffffffffffffff168273ffffffffffffffffffffffffffffffffffffffff1603610b255760006040517f89c62b64000000000000000000000000000000000000000000000000000000008152600401610b1c91906123ef565b60405180910390fd5b600360008373ffffffffffffffffffffffffffffffffffffffff1673ffffffffffffffffffffffffffffffffffffffff168152602001908152602001600020549050919050565b6060806060806000600c600087815260200190815260200160002060009054906101000a900460ff16610bd4576040517f08c379a0000000000000000000000000000000000000000000000000000000008152600401610bcb90612bf4565b60405180910390fd5b6000600b6000888152602001908152602001600020905080600001816001018260020183600301610c048b610aa0565b848054610c109061296a565b80601f0160208091040260200160405190810160405280929190818152602001828054610c3c9061296a565b8015610c895780601f10610c5e57610100808354040283529160200191610c89565b820191906000526020600020905b815481529060010190602001808311610c6c57829003601f168201915b50505050509450838054610c9c9061296a565b80601f0160208091040260200160405190810160405280929190818152602001828054610cc89061296a565b8015610d155780601f10610cea57610100808354040283529160200191610d15565b820191906000526020600020905b815481529060010190602001808311610cf857829003601f168201915b50505050509350828054610d289061296a565b80601f0160208091040260200160405190810160405280929190818152602001828054610d549061296a565b8015610da15780601f10610d7657610100808354040283529160200191610da1565b820191906000526020600020905b815481529060010190602001808311610d8457829003601f168201915b50505050509250818054610db49061296a565b80601f0160208091040260200160405190810160405280929190818152602001828054610de09061296a565b8015610e2d5780601f10610e0257610100808354040283529160200191610e2d565b820191906000526020600020905b815481529060010190602001808311610e1057829003601f168201915b50505050509150955095509550955095505091939590929450565b600a60009054906101000a900473ffffffffffffffffffffffffffffffffffffffff1681565b606060018054610e7d9061296a565b80601f0160208091040260200160405190810160405280929190818152602001828054610ea99061296a565b8015610ef65780601f10610ecb57610100808354040283529160200191610ef6565b820191906000526020600020905b815481529060010190602001808311610ed957829003601f168201915b5050505050905090565b60075460065410610f46576040517f08c379a0000000000000000000000000000000000000000000000000000000008152600401610f3d90612c60565b60405180910390fd5b600854341015610f8b576040517f08c379a0000000000000000000000000000000000000000000000000000000008152600401610f8290612ccc565b60405180910390fd5b60066000815480929190610f9e90612d1b565b9190505550610faf336006546117ec565b604051806080016040528084815260200183815260200182815260200160098054610fd99061296a565b80601f01602080910402602001604051908101604052809291908181526020018280546110059061296a565b80156110525780601f1061102757610100808354040283529160200191611052565b820191906000526020600020905b81548152906001019060200180831161103557829003601f168201915b5050505050815250600b6000600654815260200190815260200160002060008201518160000190816110849190612f0f565b50602082015181600101908161109a9190612f0f565b5060408201518160020190816110b09190612f0f565b5060608201518160030190816110c69190612f0f565b509050506001600c6000600654815260200190815260200160002060006101000a81548160ff0219169083151502179055503373ffffffffffffffffffffffffffffffffffffffff166006547f15103bf89a273396b04da5d980d4e6210e698bace58704f623b971bafaa5389985858560405161114593929190612fe1565b60405180910390a3505050565b61116461115d61144b565b83836118e5565b5050565b6111738484846106eb565b61117f84848484611a54565b50505050565b60085481565b606061119682611386565b5060006111a1611c0b565b905060008151116111c157604051806020016040528060008152506111ec565b806111cb84611c22565b6040516020016111dc929190613069565b6040516020818303038152906040525b915050919050565b60075481565b600980546112079061296a565b80601f01602080910402602001604051908101604052809291908181526020018280546112339061296a565b80156112805780601f1061125557610100808354040283529160200191611280565b820191906000526020600020905b81548152906001019060200180831161126357829003601f168201915b505050505081565b6000600560008473ffffffffffffffffffffffffffffffffffffffff1673ffffffffffffffffffffffffffffffffffffffff16815260200190815260200160002060008373ffffffffffffffffffffffffffffffffffffffff1673ffffffffffffffffffffffffffffffffffffffff16815260200190815260200160002060009054906101000a900460ff16905092915050565b60007f01ffc9a7000000000000000000000000000000000000000000000000000000007bffffffffffffffffffffffffffffffffffffffffffffffffffffffff1916827bffffffffffffffffffffffffffffffffffffffffffffffffffffffff1916149050919050565b60008061139283611cf0565b9050600073ffffffffffffffffffffffffffffffffffffffff168173ffffffffffffffffffffffffffffffffffffffff160361140557826040517f7e2732890000000000000000000000000000000000000000000000000000000081526004016113fc9190612485565b60405180910390fd5b80915050919050565b60006004600083815260200190815260200160002060009054906101000a900473ffffffffffffffffffffffffffffffffffffffff169050919050565b600033905090565b6114608383836001611d2d565b505050565b60008061147184611cf0565b9050600073ffffffffffffffffffffffffffffffffffffffff168373ffffffffffffffffffffffffffffffffffffffff16146114b3576114b2818486611ef2565b5b600073ffffffffffffffffffffffffffffffffffffffff168173ffffffffffffffffffffffffffffffffffffffff1614611544576114f5600085600080611d2d565b6001600360008373ffffffffffffffffffffffffffffffffffffffff1673ffffffffffffffffffffffffffffffffffffffff168152602001908152602001600020600082825403925050819055505b600073ffffffffffffffffffffffffffffffffffffffff168573ffffffffffffffffffffffffffffffffffffffff16146115c7576001600360008773ffffffffffffffffffffffffffffffffffffffff1673ffffffffffffffffffffffffffffffffffffffff168152602001908152602001600020600082825401925050819055505b846002600086815260200190815260200160002060006101000a81548173ffffffffffffffffffffffffffffffffffffffff021916908373ffffffffffffffffffffffffffffffffffffffff160217905550838573ffffffffffffffffffffffffffffffffffffffff168273ffffffffffffffffffffffffffffffffffffffff167fddf252ad1be2c89b69c2b068fc378daa952ba7f163c4a11628f55a4df523b3ef60405160405180910390a4809150509392505050565b600073ffffffffffffffffffffffffffffffffffffffff168273ffffffffffffffffffffffffffffffffffffffff16036116f15760006040517f64a0ae920000000000000000000000000000000000000000000000000000000081526004016116e891906123ef565b60405180910390fd5b60006116ff83836000611465565b9050600073ffffffffffffffffffffffffffffffffffffffff168173ffffffffffffffffffffffffffffffffffffffff160361177257816040517f7e2732890000000000000000000000000000000000000000000000000000000081526004016117699190612485565b60405180910390fd5b8373ffffffffffffffffffffffffffffffffffffffff168173ffffffffffffffffffffffffffffffffffffffff16146117e6578382826040517f64283d7b0000000000000000000000000000000000000000000000000000000081526004016117dd9392919061299b565b60405180910390fd5b50505050565b600073ffffffffffffffffffffffffffffffffffffffff168273ffffffffffffffffffffffffffffffffffffffff160361185e5760006040517f64a0ae9200000000000000000000000000000000000000000000000000000000815260040161185591906123ef565b60405180910390fd5b600061186c83836000611465565b9050600073ffffffffffffffffffffffffffffffffffffffff168173ffffffffffffffffffffffffffffffffffffffff16146118e05760006040517f73c6ac6e0000000000000000000000000000000000000000000000000000000081526004016118d791906123ef565b60405180910390fd5b505050565b600073ffffffffffffffffffffffffffffffffffffffff168273ffffffffffffffffffffffffffffffffffffffff160361195657816040517f5b08ba1800000000000000000000000000000000000000000000000000000000815260040161194d91906123ef565b60405180910390fd5b80600560008573ffffffffffffffffffffffffffffffffffffffff1673ffffffffffffffffffffffffffffffffffffffff16815260200190815260200160002060008473ffffffffffffffffffffffffffffffffffffffff1673ffffffffffffffffffffffffffffffffffffffff16815260200190815260200160002060006101000a81548160ff0219169083151502179055508173ffffffffffffffffffffffffffffffffffffffff168373ffffffffffffffffffffffffffffffffffffffff167f17307eab39ab6107e8899845ad3d59bd9653f200f220920489ca2b5937696c3183604051611a47919061227e565b60405180910390a3505050565b60008373ffffffffffffffffffffffffffffffffffffffff163b1115611c05578273ffffffffffffffffffffffffffffffffffffffff1663150b7a02611a9861144b565b8685856040518563ffffffff1660e01b8152600401611aba94939291906130e2565b6020604051808303816000875af1925050508015611af657506040513d601f19601f82011682018060405250810190611af39190613143565b60015b611b7a573d8060008114611b26576040519150601f19603f3d011682016040523d82523d6000602084013e611b2b565b606091505b506000815103611b7257836040517f64a0ae92000000000000000000000000000000000000000000000000000000008152600401611b6991906123ef565b60405180910390fd5b805181602001fd5b63150b7a0260e01b7bffffffffffffffffffffffffffffffffffffffffffffffffffffffff1916817bffffffffffffffffffffffffffffffffffffffffffffffffffffffff191614611c0357836040517f64a0ae92000000000000000000000000000000000000000000000000000000008152600401611bfa91906123ef565b60405180910390fd5b505b50505050565b606060405180602001604052806000815250905090565b606060006001611c3184611fb6565b01905060008167ffffffffffffffff811115611c5057611c4f612599565b5b6040519080825280601f01601f191660200182016040528015611c825781602001600182028036833780820191505090505b509050600082602001820190505b600115611ce5578080600190039150507f3031323334353637383961626364656600000000000000000000000000000000600a86061a8153600a8581611cd957611cd8613170565b5b04945060008503611c90575b819350505050919050565b60006002600083815260200190815260200160002060009054906101000a900473ffffffffffffffffffffffffffffffffffffffff169050919050565b8080611d665750600073ffffffffffffffffffffffffffffffffffffffff168273ffffffffffffffffffffffffffffffffffffffff1614155b15611e9a576000611d7684611386565b9050600073ffffffffffffffffffffffffffffffffffffffff168373ffffffffffffffffffffffffffffffffffffffff1614158015611de157508273ffffffffffffffffffffffffffffffffffffffff168173ffffffffffffffffffffffffffffffffffffffff1614155b8015611df45750611df28184611288565b155b15611e3657826040517fa9fbf51f000000000000000000000000000000000000000000000000000000008152600401611e2d91906123ef565b60405180910390fd5b8115611e9857838573ffffffffffffffffffffffffffffffffffffffff168273ffffffffffffffffffffffffffffffffffffffff167f8c5be1e5ebec7d5bd14f71427d1e84f3dd0314c0f7b2291e5b200ac8c7c3b92560405160405180910390a45b505b836004600085815260200190815260200160002060006101000a81548173ffffffffffffffffffffffffffffffffffffffff021916908373ffffffffffffffffffffffffffffffffffffffff16021790555050505050565b611efd838383612109565b611fb157600073ffffffffffffffffffffffffffffffffffffffff168373ffffffffffffffffffffffffffffffffffffffff1603611f7257806040517f7e273289000000000000000000000000000000000000000000000000000000008152600401611f699190612485565b60405180910390fd5b81816040517f177e802f000000000000000000000000000000000000000000000000000000008152600401611fa892919061319f565b60405180910390fd5b505050565b600080600090507a184f03e93ff9f4daa797ed6e38ed64bf6a1f0100000000000000008310612014577a184f03e93ff9f4daa797ed6e38ed64bf6a1f010000000000000000838161200a57612009613170565b5b0492506040810190505b6d04ee2d6d415b85acef81000000008310612051576d04ee2d6d415b85acef8100000000838161204757612046613170565b5b0492506020810190505b662386f26fc10000831061208057662386f26fc10000838161207657612075613170565b5b0492506010810190505b6305f5e10083106120a9576305f5e100838161209f5761209e613170565b5b0492506008810190505b61271083106120ce5761271083816120c4576120c3613170565b5b0492506004810190505b606483106120f157606483816120e7576120e6613170565b5b0492506002810190505b600a8310612100576001810190505b80915050919050565b60008073ffffffffffffffffffffffffffffffffffffffff168373ffffffffffffffffffffffffffffffffffffffff16141580156121c157508273ffffffffffffffffffffffffffffffffffffffff168473ffffffffffffffffffffffffffffffffffffffff16148061218257506121818484611288565b5b806121c057508273ffffffffffffffffffffffffffffffffffffffff166121a88361140e565b73ffffffffffffffffffffffffffffffffffffffff16145b5b90509392505050565b6000604051905090565b600080fd5b600080fd5b60007fffffffff0000000000000000000000000000000000000000000000000000000082169050919050565b612213816121de565b811461221e57600080fd5b50565b6000813590506122308161220a565b92915050565b60006020828403121561224c5761224b6121d4565b5b600061225a84828501612221565b91505092915050565b60008115159050919050565b61227881612263565b82525050565b6000602082019050612293600083018461226f565b92915050565b600081519050919050565b600082825260208201905092915050565b60005b838110156122d35780820151818401526020810190506122b8565b60008484015250505050565b6000601f19601f8301169050919050565b60006122fb82612299565b61230581856122a4565b93506123158185602086016122b5565b61231e816122df565b840191505092915050565b6000602082019050818103600083015261234381846122f0565b905092915050565b6000819050919050565b61235e8161234b565b811461236957600080fd5b50565b60008135905061237b81612355565b92915050565b600060208284031215612397576123966121d4565b5b60006123a58482850161236c565b91505092915050565b600073ffffffffffffffffffffffffffffffffffffffff82169050919050565b60006123d9826123ae565b9050919050565b6123e9816123ce565b82525050565b600060208201905061240460008301846123e0565b92915050565b612413816123ce565b811461241e57600080fd5b50565b6000813590506124308161240a565b92915050565b6000806040838503121561244d5761244c6121d4565b5b600061245b85828601612421565b925050602061246c8582860161236c565b9150509250929050565b61247f8161234b565b82525050565b600060208201905061249a6000830184612476565b92915050565b6000806000606084860312156124b9576124b86121d4565b5b60006124c786828701612421565b93505060206124d886828701612421565b92505060406124e98682870161236c565b9150509250925092565b600060208284031215612509576125086121d4565b5b600061251784828501612421565b91505092915050565b600060a082019050818103600083015261253a81886122f0565b9050818103602083015261254e81876122f0565b9050818103604083015261256281866122f0565b9050818103606083015261257681856122f0565b905061258560808301846123e0565b9695505050505050565b600080fd5b600080fd5b7f4e487b7100000000000000000000000000000000000000000000000000000000600052604160045260246000fd5b6125d1826122df565b810181811067ffffffffffffffff821117156125f0576125ef612599565b5b80604052505050565b60006126036121ca565b905061260f82826125c8565b919050565b600067ffffffffffffffff82111561262f5761262e612599565b5b612638826122df565b9050602081019050919050565b82818337600083830152505050565b600061266761266284612614565b6125f9565b90508281526020810184848401111561268357612682612594565b5b61268e848285612645565b509392505050565b600082601f8301126126ab576126aa61258f565b5b81356126bb848260208601612654565b91505092915050565b6000806000606084860312156126dd576126dc6121d4565b5b600084013567ffffffffffffffff8111156126fb576126fa6121d9565b5b61270786828701612696565b935050602084013567ffffffffffffffff811115612728576127276121d9565b5b61273486828701612696565b925050604084013567ffffffffffffffff811115612755576127546121d9565b5b61276186828701612696565b9150509250925092565b61277481612263565b811461277f57600080fd5b50565b6000813590506127918161276b565b92915050565b600080604083850312156127ae576127ad6121d4565b5b60006127bc85828601612421565b92505060206127cd85828601612782565b9150509250929050565b600067ffffffffffffffff8211156127f2576127f1612599565b5b6127fb826122df565b9050602081019050919050565b600061281b612816846127d7565b6125f9565b90508281526020810184848401111561283757612836612594565b5b612842848285612645565b509392505050565b600082601f83011261285f5761285e61258f565b5b813561286f848260208601612808565b91505092915050565b60008060008060808587031215612892576128916121d4565b5b60006128a087828801612421565b94505060206128b187828801612421565b93505060406128c28782880161236c565b925050606085013567ffffffffffffffff8111156128e3576128e26121d9565b5b6128ef8782880161284a565b91505092959194509250565b60008060408385031215612912576129116121d4565b5b600061292085828601612421565b925050602061293185828601612421565b9150509250929050565b7f4e487b7100000000000000000000000000000000000000000000000000000000600052602260045260246000fd5b6000600282049050600182168061298257607f821691505b6020821081036129955761299461293b565b5b50919050565b60006060820190506129b060008301866123e0565b6129bd6020830185612476565b6129ca60408301846123e0565b949350505050565b7f596f7520617265206e6f7420746865206f776e6572206f662074686973204e4660008201527f5400000000000000000000000000000000000000000000000000000000000000602082015250565b6000612a2e6021836122a4565b9150612a39826129d2565b604082019050919050565b60006020820190508181036000830152612a5d81612a21565b9050919050565b7f496e76616c696420616464726573730000000000000000000000000000000000600082015250565b6000612a9a600f836122a4565b9150612aa582612a64565b602082019050919050565b60006020820190508181036000830152612ac981612a8d565b9050919050565b7f4e6f742074686520636f6e7472616374206f776e657200000000000000000000600082015250565b6000612b066016836122a4565b9150612b1182612ad0565b602082019050919050565b60006020820190508181036000830152612b3581612af9565b9050919050565b7f4e6f2066756e647320746f207769746864726177000000000000000000000000600082015250565b6000612b726014836122a4565b9150612b7d82612b3c565b602082019050919050565b60006020820190508181036000830152612ba181612b65565b9050919050565b7f4e465420646f6573206e6f742065786973740000000000000000000000000000600082015250565b6000612bde6012836122a4565b9150612be982612ba8565b602082019050919050565b60006020820190508181036000830152612c0d81612bd1565b9050919050565b7f4d617820737570706c7920726561636865640000000000000000000000000000600082015250565b6000612c4a6012836122a4565b9150612c5582612c14565b602082019050919050565b60006020820190508181036000830152612c7981612c3d565b9050919050565b7f4e6f7420656e6f75676820657468657220746f20637265617465204e46540000600082015250565b6000612cb6601e836122a4565b9150612cc182612c80565b602082019050919050565b60006020820190508181036000830152612ce581612ca9565b9050919050565b7f4e487b7100000000000000000000000000000000000000000000000000000000600052601160045260246000fd5b6000612d268261234b565b91507fffffffffffffffffffffffffffffffffffffffffffffffffffffffffffffffff8203612d5857612d57612cec565b5b600182019050919050565b60008190508160005260206000209050919050565b60006020601f8301049050919050565b600082821b905092915050565b600060088302612dc57fffffffffffffffffffffffffffffffffffffffffffffffffffffffffffffffff82612d88565b612dcf8683612d88565b95508019841693508086168417925050509392505050565b6000819050919050565b6000612e0c612e07612e028461234b565b612de7565b61234b565b9050919050565b6000819050919050565b612e2683612df1565b612e3a612e3282612e13565b848454612d95565b825550505050565b600090565b612e4f612e42565b612e5a818484612e1d565b505050565b5b81811015612e7e57612e73600082612e47565b600181019050612e60565b5050565b601f821115612ec357612e9481612d63565b612e9d84612d78565b81016020851015612eac578190505b612ec0612eb885612d78565b830182612e5f565b50505b505050565b600082821c905092915050565b6000612ee660001984600802612ec8565b1980831691505092915050565b6000612eff8383612ed5565b9150826002028217905092915050565b612f1882612299565b67ffffffffffffffff811115612f3157612f30612599565b5b612f3b825461296a565b612f46828285612e82565b600060209050601f831160018114612f795760008415612f67578287015190505b612f718582612ef3565b865550612fd9565b601f198416612f8786612d63565b60005b82811015612faf57848901518255600182019150602085019450602081019050612f8a565b86831015612fcc5784890151612fc8601f891682612ed5565b8355505b6001600288020188555050505b505050505050565b60006060820190508181036000830152612ffb81866122f0565b9050818103602083015261300f81856122f0565b9050818103604083015261302381846122f0565b9050949350505050565b600081905092915050565b600061304382612299565b61304d818561302d565b935061305d8185602086016122b5565b80840191505092915050565b60006130758285613038565b91506130818284613038565b91508190509392505050565b600081519050919050565b600082825260208201905092915050565b60006130b48261308d565b6130be8185613098565b93506130ce8185602086016122b5565b6130d7816122df565b840191505092915050565b60006080820190506130f760008301876123e0565b61310460208301866123e0565b6131116040830185612476565b818103606083015261312381846130a9565b905095945050505050565b60008151905061313d8161220a565b92915050565b600060208284031215613159576131586121d4565b5b60006131678482850161312e565b91505092915050565b7f4e487b7100000000000000000000000000000000000000000000000000000000600052601260045260246000fd5b60006040820190506131b460008301856123e0565b6131c16020830184612476565b939250505056fea264697066735822122013cf607d564c54db16ab07925ecf84a5e7ee57f824526050fc9420a073c1125d64736f6c63430008140033",
  "linkReferences": {},
  "deployedLinkReferences": {}
}